{
  "abi": [
    {
      "type": "constructor",
      "inputs": [
        {
          "name": "_feeRecipient",
          "type": "address",
          "internalType": "address"
        }
      ],
      "stateMutability": "nonpayable"
    },
    {
      "type": "receive",
      "stateMutability": "payable"
    },
    {
      "type": "function",
      "name": "ADMIN_ROLE",
      "inputs": [],
      "outputs": [
        {
          "name": "",
          "type": "bytes32",
          "internalType": "bytes32"
        }
      ],
      "stateMutability": "view"
    },
    {
      "type": "function",
      "name": "ARBITRATOR_ROLE",
      "inputs": [],
      "outputs": [
        {
          "name": "",
          "type": "bytes32",
          "internalType": "bytes32"
        }
      ],
      "stateMutability": "view"
    },
    {
      "type": "function",
      "name": "BASIS_POINTS",
      "inputs": [],
      "outputs": [
        {
          "name": "",
          "type": "uint256",
          "internalType": "uint256"
        }
      ],
      "stateMutability": "view"
    },
    {
      "type": "function",
      "name": "DEFAULT_ADMIN_ROLE",
      "inputs": [],
      "outputs": [
        {
          "name": "",
          "type": "bytes32",
          "internalType": "bytes32"
        }
      ],
      "stateMutability": "view"
    },
    {
      "type": "function",
      "name": "approveEscrow",
      "inputs": [
        {
          "name": "_escrowId",
          "type": "uint256",
          "internalType": "uint256"
        }
      ],
      "outputs": [],
      "stateMutability": "nonpayable"
    },
    {
      "type": "function",
      "name": "autoRelease",
      "inputs": [
        {
          "name": "_escrowId",
          "type": "uint256",
          "internalType": "uint256"
        }
      ],
      "outputs": [],
      "stateMutability": "nonpayable"
    },
    {
      "type": "function",
      "name": "baseFeePercentage",
      "inputs": [],
      "outputs": [
        {
          "name": "",
          "type": "uint256",
          "internalType": "uint256"
        }
      ],
      "stateMutability": "view"
    },
    {
      "type": "function",
      "name": "batchCreateEscrows",
      "inputs": [
        {
          "name": "_sellers",
          "type": "address[]",
          "internalType": "address[]"
        },
        {
          "name": "_amounts",
          "type": "uint256[]",
          "internalType": "uint256[]"
        },
        {
          "name": "_disputeWindows",
          "type": "uint256[]",
          "internalType": "uint256[]"
        },
        {
          "name": "_metadatas",
          "type": "string[]",
          "internalType": "string[]"
        }
      ],
      "outputs": [
        {
          "name": "escrowIds",
          "type": "uint256[]",
          "internalType": "uint256[]"
        }
      ],
      "stateMutability": "payable"
    },
    {
      "type": "function",
      "name": "batchSetUserSubscriptionTiers",
      "inputs": [
        {
          "name": "users",
          "type": "address[]",
          "internalType": "address[]"
        },
        {
          "name": "tiers",
          "type": "uint8[]",
          "internalType": "uint8[]"
        }
      ],
      "outputs": [],
      "stateMutability": "nonpayable"
    },
    {
      "type": "function",
      "name": "calculateFee",
      "inputs": [
        {
          "name": "_amount",
          "type": "uint256",
          "internalType": "uint256"
        }
      ],
      "outputs": [
        {
          "name": "fee",
          "type": "uint256",
          "internalType": "uint256"
        }
      ],
      "stateMutability": "view"
    },
    {
      "type": "function",
      "name": "cancelEscrow",
      "inputs": [
        {
          "name": "_escrowId",
          "type": "uint256",
          "internalType": "uint256"
        }
      ],
      "outputs": [],
      "stateMutability": "nonpayable"
    },
    {
      "type": "function",
      "name": "confirmDelivery",
      "inputs": [
        {
          "name": "_escrowId",
          "type": "uint256",
          "internalType": "uint256"
        }
      ],
      "outputs": [],
      "stateMutability": "nonpayable"
    },
    {
      "type": "function",
      "name": "createEscrow",
      "inputs": [
        {
          "name": "_seller",
          "type": "address",
          "internalType": "address"
        },
        {
          "name": "_amount",
          "type": "uint256",
          "internalType": "uint256"
        },
        {
          "name": "_disputeWindow",
          "type": "uint256",
          "internalType": "uint256"
        },
        {
          "name": "_metadata",
          "type": "string",
          "internalType": "string"
        }
      ],
      "outputs": [
        {
          "name": "escrowId",
          "type": "uint256",
          "internalType": "uint256"
        }
      ],
      "stateMutability": "payable"
    },
    {
      "type": "function",
      "name": "createEscrowWithTemplate",
      "inputs": [
        {
          "name": "_seller",
          "type": "address",
          "internalType": "address"
        },
        {
          "name": "_amount",
          "type": "uint256",
          "internalType": "uint256"
        },
        {
          "name": "_disputeWindow",
          "type": "uint256",
          "internalType": "uint256"
        },
        {
          "name": "_metadata",
          "type": "string",
          "internalType": "string"
        },
        {
          "name": "_templateId",
          "type": "string",
          "internalType": "string"
        },
        {
          "name": "_approvers",
          "type": "address[]",
          "internalType": "address[]"
        }
      ],
      "outputs": [
        {
          "name": "escrowId",
          "type": "uint256",
          "internalType": "uint256"
        }
      ],
      "stateMutability": "payable"
    },
    {
      "type": "function",
      "name": "defaultApprovalsRequired",
      "inputs": [],
      "outputs": [
        {
          "name": "",
          "type": "uint256",
          "internalType": "uint256"
        }
      ],
      "stateMutability": "view"
    },
    {
      "type": "function",
      "name": "defaultDisputeWindow",
      "inputs": [],
      "outputs": [
        {
          "name": "",
          "type": "uint256",
          "internalType": "uint256"
        }
      ],
      "stateMutability": "view"
    },
    {
      "type": "function",
      "name": "disputeReasons",
      "inputs": [
        {
          "name": "",
          "type": "uint256",
          "internalType": "uint256"
        }
      ],
      "outputs": [
        {
          "name": "",
          "type": "string",
          "internalType": "string"
        }
      ],
      "stateMutability": "view"
    },
    {
      "type": "function",
      "name": "enterpriseTierFeePercentage",
      "inputs": [],
      "outputs": [
        {
          "name": "",
          "type": "uint256",
          "internalType": "uint256"
        }
      ],
      "stateMutability": "view"
    },
    {
      "type": "function",
      "name": "escrows",
      "inputs": [
        {
          "name": "",
          "type": "uint256",
          "internalType": "uint256"
        }
      ],
      "outputs": [
        {
          "name": "buyer",
          "type": "address",
          "internalType": "address"
        },
        {
          "name": "seller",
          "type": "address",
          "internalType": "address"
        },
        {
          "name": "amount",
          "type": "uint256",
          "internalType": "uint256"
        },
        {
          "name": "fee",
          "type": "uint256",
          "internalType": "uint256"
        },
        {
          "name": "status",
          "type": "uint8",
          "internalType": "enum EscrowCore.Status"
        },
        {
          "name": "createdAt",
          "type": "uint256",
          "internalType": "uint256"
        },
        {
          "name": "fundedAt",
          "type": "uint256",
          "internalType": "uint256"
        },
        {
          "name": "disputeWindow",
          "type": "uint256",
          "internalType": "uint256"
        },
        {
          "name": "feeCollected",
          "type": "bool",
          "internalType": "bool"
        },
        {
          "name": "metadata",
          "type": "string",
          "internalType": "string"
        },
        {
          "name": "chainId",
          "type": "uint256",
          "internalType": "uint256"
        },
        {
          "name": "approvalsRequired",
          "type": "uint256",
          "internalType": "uint256"
        },
        {
          "name": "approvalCount",
          "type": "uint256",
          "internalType": "uint256"
        }
      ],
      "stateMutability": "view"
    },
    {
      "type": "function",
      "name": "feeRecipient",
      "inputs": [],
      "outputs": [
        {
          "name": "",
          "type": "address",
          "internalType": "address"
        }
      ],
      "stateMutability": "view"
    },
    {
      "type": "function",
      "name": "fundEscrow",
      "inputs": [
        {
          "name": "_escrowId",
          "type": "uint256",
          "internalType": "uint256"
        }
      ],
      "outputs": [],
      "stateMutability": "payable"
    },
    {
      "type": "function",
      "name": "getActiveEscrows",
      "inputs": [
        {
          "name": "offset",
          "type": "uint256",
          "internalType": "uint256"
        },
        {
          "name": "limit",
          "type": "uint256",
          "internalType": "uint256"
        }
      ],
      "outputs": [
        {
          "name": "escrowIds",
          "type": "uint256[]",
          "internalType": "uint256[]"
        },
        {
          "name": "count",
          "type": "uint256",
          "internalType": "uint256"
        }
      ],
      "stateMutability": "view"
    },
    {
      "type": "function",
      "name": "getAvailableFees",
      "inputs": [],
      "outputs": [
        {
          "name": "",
          "type": "uint256",
          "internalType": "uint256"
        }
      ],
      "stateMutability": "view"
    },
    {
      "type": "function",
      "name": "getDisputeDetails",
      "inputs": [
        {
          "name": "_escrowId",
          "type": "uint256",
          "internalType": "uint256"
        }
      ],
      "outputs": [
        {
          "name": "disputeReason",
          "type": "string",
          "internalType": "string"
        },
        {
          "name": "resolution",
          "type": "string",
          "internalType": "string"
        }
      ],
      "stateMutability": "view"
    },
    {
      "type": "function",
      "name": "getDisputedEscrows",
      "inputs": [],
      "outputs": [
        {
          "name": "escrowIds",
          "type": "uint256[]",
          "internalType": "uint256[]"
        }
      ],
      "stateMutability": "view"
    },
    {
      "type": "function",
      "name": "getEscrowDetails",
      "inputs": [
        {
          "name": "_escrowId",
          "type": "uint256",
          "internalType": "uint256"
        }
      ],
      "outputs": [
        {
          "name": "buyer",
          "type": "address",
          "internalType": "address"
        },
        {
          "name": "seller",
          "type": "address",
          "internalType": "address"
        },
        {
          "name": "amount",
          "type": "uint256",
          "internalType": "uint256"
        },
        {
          "name": "fee",
          "type": "uint256",
          "internalType": "uint256"
        },
        {
          "name": "status",
          "type": "uint8",
          "internalType": "enum EscrowCore.Status"
        },
        {
          "name": "createdAt",
          "type": "uint256",
          "internalType": "uint256"
        },
        {
          "name": "fundedAt",
          "type": "uint256",
          "internalType": "uint256"
        },
        {
          "name": "disputeWindow",
          "type": "uint256",
          "internalType": "uint256"
        },
        {
          "name": "metadata",
          "type": "string",
          "internalType": "string"
        }
      ],
      "stateMutability": "view"
    },
    {
      "type": "function",
      "name": "getEscrowStats",
      "inputs": [],
      "outputs": [
        {
          "name": "totalEscrows",
          "type": "uint256",
          "internalType": "uint256"
        },
        {
          "name": "activeEscrows",
          "type": "uint256",
          "internalType": "uint256"
        },
        {
          "name": "completedEscrows",
          "type": "uint256",
          "internalType": "uint256"
        },
        {
          "name": "disputedEscrows",
          "type": "uint256",
          "internalType": "uint256"
        },
        {
          "name": "totalVolume",
          "type": "uint256",
          "internalType": "uint256"
        },
        {
          "name": "feesCollected",
          "type": "uint256",
          "internalType": "uint256"
        },
        {
          "name": "availableFees",
          "type": "uint256",
          "internalType": "uint256"
        }
      ],
      "stateMutability": "view"
    },
    {
      "type": "function",
      "name": "getRoleAdmin",
      "inputs": [
        {
          "name": "role",
          "type": "bytes32",
          "internalType": "bytes32"
        }
      ],
      "outputs": [
        {
          "name": "",
          "type": "bytes32",
          "internalType": "bytes32"
        }
      ],
      "stateMutability": "view"
    },
    {
      "type": "function",
      "name": "getUserEscrows",
      "inputs": [
        {
          "name": "_user",
          "type": "address",
          "internalType": "address"
        }
      ],
      "outputs": [
        {
          "name": "",
          "type": "uint256[]",
          "internalType": "uint256[]"
        }
      ],
      "stateMutability": "view"
    },
    {
      "type": "function",
      "name": "grantRole",
      "inputs": [
        {
          "name": "role",
          "type": "bytes32",
          "internalType": "bytes32"
        },
        {
          "name": "account",
          "type": "address",
          "internalType": "address"
        }
      ],
      "outputs": [],
      "stateMutability": "nonpayable"
    },
    {
      "type": "function",
      "name": "hasRole",
      "inputs": [
        {
          "name": "role",
          "type": "bytes32",
          "internalType": "bytes32"
        },
        {
          "name": "account",
          "type": "address",
          "internalType": "address"
        }
      ],
      "outputs": [
        {
          "name": "",
          "type": "bool",
          "internalType": "bool"
        }
      ],
      "stateMutability": "view"
    },
    {
      "type": "function",
      "name": "lastBatchOperation",
      "inputs": [
        {
          "name": "",
          "type": "address",
          "internalType": "address"
        }
      ],
      "outputs": [
        {
          "name": "",
          "type": "uint256",
          "internalType": "uint256"
        }
      ],
      "stateMutability": "view"
    },
    {
      "type": "function",
      "name": "markDelivered",
      "inputs": [
        {
          "name": "_escrowId",
          "type": "uint256",
          "internalType": "uint256"
        }
      ],
      "outputs": [],
      "stateMutability": "nonpayable"
    },
    {
      "type": "function",
      "name": "multiSigThreshold",
      "inputs": [],
      "outputs": [
        {
          "name": "",
          "type": "uint256",
          "internalType": "uint256"
        }
      ],
      "stateMutability": "view"
    },
    {
      "type": "function",
      "name": "nextEscrowId",
      "inputs": [],
      "outputs": [
        {
          "name": "",
          "type": "uint256",
          "internalType": "uint256"
        }
      ],
      "stateMutability": "view"
    },
    {
      "type": "function",
      "name": "pause",
      "inputs": [],
      "outputs": [],
      "stateMutability": "nonpayable"
    },
    {
      "type": "function",
      "name": "paused",
      "inputs": [],
      "outputs": [
        {
          "name": "",
          "type": "bool",
          "internalType": "bool"
        }
      ],
      "stateMutability": "view"
    },
    {
      "type": "function",
      "name": "proTierFeePercentage",
      "inputs": [],
      "outputs": [
        {
          "name": "",
          "type": "uint256",
          "internalType": "uint256"
        }
      ],
      "stateMutability": "view"
    },
    {
      "type": "function",
      "name": "raiseDispute",
      "inputs": [
        {
          "name": "_escrowId",
          "type": "uint256",
          "internalType": "uint256"
        },
        {
          "name": "_reason",
          "type": "string",
          "internalType": "string"
        }
      ],
      "outputs": [],
      "stateMutability": "nonpayable"
    },
    {
      "type": "function",
      "name": "renounceRole",
      "inputs": [
        {
          "name": "role",
          "type": "bytes32",
          "internalType": "bytes32"
        },
        {
          "name": "callerConfirmation",
          "type": "address",
          "internalType": "address"
        }
      ],
      "outputs": [],
      "stateMutability": "nonpayable"
    },
    {
      "type": "function",
      "name": "resolutionDetails",
      "inputs": [
        {
          "name": "",
          "type": "uint256",
          "internalType": "uint256"
        }
      ],
      "outputs": [
        {
          "name": "",
          "type": "string",
          "internalType": "string"
        }
      ],
      "stateMutability": "view"
    },
    {
      "type": "function",
      "name": "resolveDispute",
      "inputs": [
        {
          "name": "_escrowId",
          "type": "uint256",
          "internalType": "uint256"
        },
        {
          "name": "_refundToBuyer",
          "type": "bool",
          "internalType": "bool"
        },
        {
          "name": "_resolution",
          "type": "string",
          "internalType": "string"
        }
      ],
      "outputs": [],
      "stateMutability": "nonpayable"
    },
    {
      "type": "function",
      "name": "revokeRole",
      "inputs": [
        {
          "name": "role",
          "type": "bytes32",
          "internalType": "bytes32"
        },
        {
          "name": "account",
          "type": "address",
          "internalType": "address"
        }
      ],
      "outputs": [],
      "stateMutability": "nonpayable"
    },
    {
      "type": "function",
      "name": "setEscrowTemplate",
      "inputs": [
        {
          "name": "_templateId",
          "type": "string",
          "internalType": "string"
        },
        {
          "name": "_disputeWindow",
          "type": "uint256",
          "internalType": "uint256"
        },
        {
          "name": "_feePercentage",
          "type": "uint256",
          "internalType": "uint256"
        },
        {
          "name": "_requiresMultiSig",
          "type": "bool",
          "internalType": "bool"
        },
        {
          "name": "_approvalsRequired",
          "type": "uint256",
          "internalType": "uint256"
        }
      ],
      "outputs": [],
      "stateMutability": "nonpayable"
    },
    {
      "type": "function",
      "name": "setUserSubscriptionTier",
      "inputs": [
        {
          "name": "user",
          "type": "address",
          "internalType": "address"
        },
        {
          "name": "tier",
          "type": "uint8",
          "internalType": "uint8"
        }
      ],
      "outputs": [],
      "stateMutability": "nonpayable"
    },
    {
      "type": "function",
      "name": "supportsInterface",
      "inputs": [
        {
          "name": "interfaceId",
          "type": "bytes4",
          "internalType": "bytes4"
        }
      ],
      "outputs": [
        {
          "name": "",
          "type": "bool",
          "internalType": "bool"
        }
      ],
      "stateMutability": "view"
    },
    {
      "type": "function",
      "name": "templates",
      "inputs": [
        {
          "name": "",
          "type": "string",
          "internalType": "string"
        }
      ],
      "outputs": [
        {
          "name": "disputeWindow",
          "type": "uint256",
          "internalType": "uint256"
        },
        {
          "name": "feePercentage",
          "type": "uint256",
          "internalType": "uint256"
        },
        {
          "name": "requiresMultiSig",
          "type": "bool",
          "internalType": "bool"
        },
        {
          "name": "approvalsRequired",
          "type": "uint256",
          "internalType": "uint256"
        },
        {
          "name": "exists",
          "type": "bool",
          "internalType": "bool"
        }
      ],
      "stateMutability": "view"
    },
    {
      "type": "function",
      "name": "totalFeesCollected",
      "inputs": [],
      "outputs": [
        {
          "name": "",
          "type": "uint256",
          "internalType": "uint256"
        }
      ],
      "stateMutability": "view"
    },
    {
      "type": "function",
      "name": "unpause",
      "inputs": [],
      "outputs": [],
      "stateMutability": "nonpayable"
    },
    {
      "type": "function",
      "name": "updateDefaultDisputeWindow",
      "inputs": [
        {
          "name": "_newWindow",
          "type": "uint256",
          "internalType": "uint256"
        }
      ],
      "outputs": [],
      "stateMutability": "nonpayable"
    },
    {
      "type": "function",
      "name": "updateFeePercentage",
      "inputs": [
        {
          "name": "_newFeePercentage",
          "type": "uint256",
          "internalType": "uint256"
        }
      ],
      "outputs": [],
      "stateMutability": "nonpayable"
    },
    {
      "type": "function",
      "name": "updateFeeRecipient",
      "inputs": [
        {
          "name": "_newRecipient",
          "type": "address",
          "internalType": "address"
        }
      ],
      "outputs": [],
      "stateMutability": "nonpayable"
    },
    {
      "type": "function",
      "name": "updateFeeTiers",
      "inputs": [
        {
          "name": "_baseFee",
          "type": "uint256",
          "internalType": "uint256"
        },
        {
          "name": "_proFee",
          "type": "uint256",
          "internalType": "uint256"
        },
        {
          "name": "_enterpriseFee",
          "type": "uint256",
          "internalType": "uint256"
        }
      ],
      "outputs": [],
      "stateMutability": "nonpayable"
    },
    {
      "type": "function",
      "name": "userActiveEscrowCount",
      "inputs": [
        {
          "name": "",
          "type": "address",
          "internalType": "address"
        }
      ],
      "outputs": [
        {
          "name": "",
          "type": "uint256",
          "internalType": "uint256"
        }
      ],
      "stateMutability": "view"
    },
    {
      "type": "function",
      "name": "userEscrows",
      "inputs": [
        {
          "name": "",
          "type": "address",
          "internalType": "address"
        },
        {
          "name": "",
          "type": "uint256",
          "internalType": "uint256"
        }
      ],
      "outputs": [
        {
          "name": "",
          "type": "uint256",
          "internalType": "uint256"
        }
      ],
      "stateMutability": "view"
    },
    {
      "type": "function",
      "name": "userSubscriptionTier",
      "inputs": [
        {
          "name": "",
          "type": "address",
          "internalType": "address"
        }
      ],
      "outputs": [
        {
          "name": "",
          "type": "uint8",
          "internalType": "uint8"
        }
      ],
      "stateMutability": "view"
    },
    {
      "type": "function",
      "name": "withdrawFees",
      "inputs": [],
      "outputs": [],
      "stateMutability": "nonpayable"
    },
    {
      "type": "event",
      "name": "DeliveryConfirmed",
      "inputs": [
        {
          "name": "escrowId",
          "type": "uint256",
          "indexed": true,
          "internalType": "uint256"
        },
        {
          "name": "buyer",
          "type": "address",
          "indexed": true,
          "internalType": "address"
        },
        {
          "name": "timestamp",
          "type": "uint256",
          "indexed": false,
          "internalType": "uint256"
        }
      ],
      "anonymous": false
    },
    {
      "type": "event",
      "name": "DeliveryMarked",
      "inputs": [
        {
          "name": "escrowId",
          "type": "uint256",
          "indexed": true,
          "internalType": "uint256"
        },
        {
          "name": "seller",
          "type": "address",
          "indexed": true,
          "internalType": "address"
        },
        {
          "name": "timestamp",
          "type": "uint256",
          "indexed": false,
          "internalType": "uint256"
        }
      ],
      "anonymous": false
    },
    {
      "type": "event",
      "name": "DisputeRaised",
      "inputs": [
        {
          "name": "escrowId",
          "type": "uint256",
          "indexed": true,
          "internalType": "uint256"
        },
        {
          "name": "disputer",
          "type": "address",
          "indexed": true,
          "internalType": "address"
        },
        {
          "name": "reason",
          "type": "string",
          "indexed": false,
          "internalType": "string"
        },
        {
          "name": "timestamp",
          "type": "uint256",
          "indexed": false,
          "internalType": "uint256"
        }
      ],
      "anonymous": false
    },
    {
      "type": "event",
      "name": "DisputeResolved",
      "inputs": [
        {
          "name": "escrowId",
          "type": "uint256",
          "indexed": true,
          "internalType": "uint256"
        },
        {
          "name": "arbitrator",
          "type": "address",
          "indexed": true,
          "internalType": "address"
        },
        {
          "name": "refunded",
          "type": "bool",
          "indexed": false,
          "internalType": "bool"
        },
        {
          "name": "resolution",
          "type": "string",
          "indexed": false,
          "internalType": "string"
        },
        {
          "name": "timestamp",
          "type": "uint256",
          "indexed": false,
          "internalType": "uint256"
        }
      ],
      "anonymous": false
    },
    {
      "type": "event",
      "name": "DisputeWindowUpdated",
      "inputs": [
        {
          "name": "oldWindow",
          "type": "uint256",
          "indexed": false,
          "internalType": "uint256"
        },
        {
          "name": "newWindow",
          "type": "uint256",
          "indexed": false,
          "internalType": "uint256"
        }
      ],
      "anonymous": false
    },
    {
      "type": "event",
      "name": "EscrowCancelled",
      "inputs": [
        {
          "name": "escrowId",
          "type": "uint256",
          "indexed": true,
          "internalType": "uint256"
        },
        {
          "name": "timestamp",
          "type": "uint256",
          "indexed": false,
          "internalType": "uint256"
        }
      ],
      "anonymous": false
    },
    {
      "type": "event",
      "name": "EscrowCompleted",
      "inputs": [
        {
          "name": "escrowId",
          "type": "uint256",
          "indexed": true,
          "internalType": "uint256"
        },
        {
          "name": "seller",
          "type": "address",
          "indexed": true,
          "internalType": "address"
        },
        {
          "name": "amount",
          "type": "uint256",
          "indexed": false,
          "internalType": "uint256"
        },
        {
          "name": "fee",
          "type": "uint256",
          "indexed": false,
          "internalType": "uint256"
        },
        {
          "name": "timestamp",
          "type": "uint256",
          "indexed": false,
          "internalType": "uint256"
        }
      ],
      "anonymous": false
    },
    {
      "type": "event",
      "name": "EscrowCreated",
      "inputs": [
        {
          "name": "escrowId",
          "type": "uint256",
          "indexed": true,
          "internalType": "uint256"
        },
        {
          "name": "buyer",
          "type": "address",
          "indexed": true,
          "internalType": "address"
        },
        {
          "name": "seller",
          "type": "address",
          "indexed": true,
          "internalType": "address"
        },
        {
          "name": "amount",
          "type": "uint256",
          "indexed": false,
          "internalType": "uint256"
        },
        {
          "name": "fee",
          "type": "uint256",
          "indexed": false,
          "internalType": "uint256"
        }
      ],
      "anonymous": false
    },
    {
      "type": "event",
      "name": "EscrowFunded",
      "inputs": [
        {
          "name": "escrowId",
          "type": "uint256",
          "indexed": true,
          "internalType": "uint256"
        },
        {
          "name": "buyer",
          "type": "address",
          "indexed": true,
          "internalType": "address"
        },
        {
          "name": "amount",
          "type": "uint256",
          "indexed": false,
          "internalType": "uint256"
        },
        {
          "name": "timestamp",
          "type": "uint256",
          "indexed": false,
          "internalType": "uint256"
        }
      ],
      "anonymous": false
    },
    {
      "type": "event",
      "name": "EscrowRefunded",
      "inputs": [
        {
          "name": "escrowId",
          "type": "uint256",
          "indexed": true,
          "internalType": "uint256"
        },
        {
          "name": "buyer",
          "type": "address",
          "indexed": true,
          "internalType": "address"
        },
        {
          "name": "amount",
          "type": "uint256",
          "indexed": false,
          "internalType": "uint256"
        },
        {
          "name": "timestamp",
          "type": "uint256",
          "indexed": false,
          "internalType": "uint256"
        }
      ],
      "anonymous": false
    },
    {
      "type": "event",
      "name": "FeeRecipientUpdated",
      "inputs": [
        {
          "name": "oldRecipient",
          "type": "address",
          "indexed": false,
          "internalType": "address"
        },
        {
          "name": "newRecipient",
          "type": "address",
          "indexed": false,
          "internalType": "address"
        }
      ],
      "anonymous": false
    },
    {
      "type": "event",
      "name": "FeeUpdated",
      "inputs": [
        {
          "name": "oldFee",
          "type": "uint256",
          "indexed": false,
          "internalType": "uint256"
        },
        {
          "name": "newFee",
          "type": "uint256",
          "indexed": false,
          "internalType": "uint256"
        }
      ],
      "anonymous": false
    },
    {
      "type": "event",
      "name": "Paused",
      "inputs": [
        {
          "name": "account",
          "type": "address",
          "indexed": false,
          "internalType": "address"
        }
      ],
      "anonymous": false
    },
    {
      "type": "event",
      "name": "RoleAdminChanged",
      "inputs": [
        {
          "name": "role",
          "type": "bytes32",
          "indexed": true,
          "internalType": "bytes32"
        },
        {
          "name": "previousAdminRole",
          "type": "bytes32",
          "indexed": true,
          "internalType": "bytes32"
        },
        {
          "name": "newAdminRole",
          "type": "bytes32",
          "indexed": true,
          "internalType": "bytes32"
        }
      ],
      "anonymous": false
    },
    {
      "type": "event",
      "name": "RoleGranted",
      "inputs": [
        {
          "name": "role",
          "type": "bytes32",
          "indexed": true,
          "internalType": "bytes32"
        },
        {
          "name": "account",
          "type": "address",
          "indexed": true,
          "internalType": "address"
        },
        {
          "name": "sender",
          "type": "address",
          "indexed": true,
          "internalType": "address"
        }
      ],
      "anonymous": false
    },
    {
      "type": "event",
      "name": "RoleRevoked",
      "inputs": [
        {
          "name": "role",
          "type": "bytes32",
          "indexed": true,
          "internalType": "bytes32"
        },
        {
          "name": "account",
          "type": "address",
          "indexed": true,
          "internalType": "address"
        },
        {
          "name": "sender",
          "type": "address",
          "indexed": true,
          "internalType": "address"
        }
      ],
      "anonymous": false
    },
    {
      "type": "event",
      "name": "Unpaused",
      "inputs": [
        {
          "name": "account",
          "type": "address",
          "indexed": false,
          "internalType": "address"
        }
      ],
      "anonymous": false
    },
    {
      "type": "error",
      "name": "AccessControlBadConfirmation",
      "inputs": []
    },
    {
      "type": "error",
      "name": "AccessControlUnauthorizedAccount",
      "inputs": [
        {
          "name": "account",
          "type": "address",
          "internalType": "address"
        },
        {
          "name": "neededRole",
          "type": "bytes32",
          "internalType": "bytes32"
        }
      ]
    },
    {
      "type": "error",
      "name": "EnforcedPause",
      "inputs": []
    },
    {
      "type": "error",
      "name": "EscrowNotFound",
      "inputs": []
    },
    {
      "type": "error",
      "name": "ExpectedPause",
      "inputs": []
    },
    {
      "type": "error",
      "name": "IncorrectPaymentAmount",
      "inputs": [
        {
          "name": "received",
          "type": "uint256",
          "internalType": "uint256"
        },
        {
          "name": "expected",
          "type": "uint256",
          "internalType": "uint256"
        }
      ]
    },
    {
      "type": "error",
      "name": "InvalidStatus",
      "inputs": [
        {
          "name": "current",
          "type": "uint8",
          "internalType": "enum EscrowCore.Status"
        },
        {
          "name": "expected",
          "type": "uint8",
          "internalType": "enum EscrowCore.Status"
        }
      ]
    },
    {
      "type": "error",
      "name": "ReentrancyGuardReentrantCall",
      "inputs": []
    },
    {
      "type": "error",
      "name": "TransferFailed",
      "inputs": []
    },
    {
      "type": "error",
      "name": "Unauthorized",
      "inputs": []
    }
  ],
  "bytecode": {
    "object": "0x60803461010857601f613e8d38819003918201601f19168301916001600160401b0383118484101761010d5780849260209460405283398101031261010857516001600160a01b03811690819003610108576001805560fa60045562093a8060055560c86008556096600955678ac7230489e80000600a556002600b5580156100c35761008b33610123565b50610095336101a1565b5061009f33610241565b50600680546001600160a01b031916919091179055604051613b9090816102dd8239f35b60405162461bcd60e51b815260206004820152601560248201527f496e76616c69642066656520726563697069656e7400000000000000000000006044820152606490fd5b600080fd5b634e487b7160e01b600052604160045260246000fd5b6001600160a01b031660008181527fad3228b676f7d3cd4284a5443f17f1962b36e491b30a40b2405849e597ba5fb5602052604081205490919060ff1661019d57818052816020526040822081835260205260408220600160ff198254161790553391600080516020613e6d8339815191528180a4600190565b5090565b6001600160a01b031660008181527f7d7ffb7a348e1c6a02869081a26547b49160dd3df72d1d75a570eb9b698292ec60205260408120549091907fa49807205ce4d355092ef5a8a18f56e8913cf4a201fbe287825b095693c217759060ff1661023c57808352826020526040832082845260205260408320600160ff19825416179055600080516020613e6d833981519152339380a4600190565b505090565b6001600160a01b031660008181527f124a13b16867194fc8fe1b97be0d668b89ac2a8dd77d418cf4feefa89864a62660205260408120549091907f16ceee8289685dd2a02b9c8ae81d2df373176ce53519e6284e2a2950d6546ffa9060ff1661023c57808352826020526040832082845260205260408320600160ff19825416179055600080516020613e6d833981519152339380a460019056fe6080604052600436101561001b575b361561001957600080fd5b005b60003560e01c8063012f52ee146128e157806301ffc9a71461288b57806303e880331461275457806303fce7ef146124f45780630707950d1461244a5780630e681582146123d157806316b305ee14612394578063248a9ca3146123655780632682ff42146123045780632840662d14611ef55780632eb5242514611ec95780632f2ff15d14611e8a578063344f8ead14611e6c57806336568abe14611e2557806339f5687e146118a55780633f4ba83a1461183b57806340806f7c1461181f578063459b860e146116f657806346904840146116cd578063476343ee146116065780634937a943146115e85780634badfeb2146115ca5780635aef573c146112d15780635c975abb146112ae5780635ccea85e1461122357806360c6d8ae1461120557806361b89558146111c557806367b792e61461118b578063683f31d3146111125780636cad3fb0146110b05780636f346d8c1461107657806375b238fc1461103b5780637627215c1461101d5780637f944dd014610fc55780638375bb3914610fa75780638456cb5914610f4d57806389cb29dd14610f2f57806391d1485414610ee257806399a5d74714610eb55780639b71b96414610d955780639cea078714610d5a578063a217fddf14610d3e578063a9c73ddd14610d20578063acff2b0914610c18578063b0eacf7814610b07578063b22beeda14610a74578063b996ec2a146109b8578063c9c31af51461090f578063d547741f146108d0578063d59553f3146107f4578063e01824361461068e578063e1f1c4a714610671578063ea89735d146105fb578063eb826a5f146104cf578063f160d3691461041b578063f877eb7b146103db5763fd84cb970361000e57346103d65760203660031901126103d6576004356102af6137a5565b6102b7613a44565b6102c46003548210612d69565b80600052600d6020526102e560018060a01b036040600020541633146134dc565b80600052600d60205260046040600020019081549160ff831660088110156103c057600181149081156103b5575b501561035e5760036103589360ff1916179055604051428152817f2f4a952729db32131cb3d658cc231127e0ce7e50f83508ece9a49c985f2384d060203393a36137c3565b60018055005b60405162461bcd60e51b815260206004820152602960248201527f43616e6e6f7420636f6e6669726d2064656c697665727920696e2063757272656044820152686e742073746174757360b81b6064820152608490fd5b600291501438610313565b634e487b7160e01b600052602160045260246000fd5b600080fd5b346103d65760403660031901126103d6576104116103fd60243560043561351e565b604051928392604084526040840190612ccc565b9060208301520390f35b346103d65760203660031901126103d657610434612bb9565b61043c613705565b6001600160a01b039081168015610496577faaebcf1bfa00580e41d966056b48521fa9f202645c86d4ddf28113e617c1b1d39160409160065491816001600160601b0360a01b8416176006558351921682526020820152a1005b60405162461bcd60e51b8152602060048201526011602482015270125b9d985b1a59081c9958da5c1a595b9d607a1b6044820152606490fd5b346103d6576020806003193601126103d6576004356104ec6137a5565b6104f96003548210612d69565b6000818152600d835260409020600101546001600160a01b031633036105bf5780600052600d825260ff6004604060002001541660088110156103c0576001036105855780600052600d82526004604060002001600260ff198254161790557f96d3617eedfa38bef0914b606c12b01c032b221400a07de823fe563575ef0381604051924284523393a3005b90600d9160005252604460ff600460406000200154166105b66040519163f924664d60e01b83526004830190612b02565b60016024820152fd5b60405162461bcd60e51b815260048101839052601460248201527313db9b1e481cd95b1b195c8818d85b8818d85b1b60621b6044820152606490fd5b346103d65760203660031901126103d65760043561061c6003548210612d69565b600052601060205261065f6040600020601160205261066d61064b610645604060002093612a5d565b92612a5d565b604051938493604085526040850190612b32565b908382036020850152612b32565b0390f35b346103d65760003660031901126103d65760206040516127108152f35b346103d6576020806003193601126103d657600435906106ac6137a5565b6106b96003548310612d69565b81600052600d815260406000206106e760018060a01b0391828082541633149182156107e3575b5050613490565b82600052600d825260ff6004604060002001541660088110156103c0576107a957907fdc48a08bb890bd1b8e4261212a97a5e711e80830d96ba56b362f3ac5f427d51e9183600052600d82526001604060002060048101600660ff1982541617905582815416600052600f84526040600020805480610797575b5050015416600052600f81526040600020805480610785575b5050604051428152a2005b61078e906133c8565b9055838061077a565b6107a0906133c8565b90558680610761565b50600d9160005252604460ff600460406000200154166107da6040519163f924664d60e01b83526004830190612b02565b60006024820152fd5b6001919250015416331482866106e0565b346103d65760003660031901126103d6576003546000805b82811061088e575061081d9061344a565b60009160005b818110610840576040516020808252819061066d90820186612ccc565b80600052600d60205260ff6004604060002001541660088110156103c05760041461086e575b600101610823565b9261088681856108806001948761347c565b52612dad565b939050610866565b80600052600d60205260ff6004604060002001541660088110156103c0576004146108bc575b60010161080c565b906108c8600191612dad565b9190506108b4565b346103d65760403660031901126103d6576100196004356108ef612bcf565b9080600052600060205261090a60016040600020015461377f565b613ae5565b60203660031901126103d6576004356109266137a5565b61092e613a44565b61093b6003548210612d69565b80600052600d60205261095c60018060a01b036040600020541633146134dc565b80600052600d60205260ff6004604060002001541660088110156103c05761098757610358906139c7565b600052600d602052604460ff600460406000200154166107da6040519163f924664d60e01b83526004830190612b02565b346103d65760203660031901126103d6576004356109d96003548210612d69565b600052600d602052604060002060018060a01b039061066d82825416926001830154169160028101549360038201549160ff6004820154166005820154610a56600684015492610a30600960078701549601612a5d565b966040519a8b9a610120988c5260208c015260408b015260608a01526080890190612b02565b60a087015260c086015260e085015280610100850152830190612b32565b346103d65760203660031901126103d6576004356001600160401b0381116103d657610abe6020610aab60a0933690600401612b72565b8160405193828580945193849201612b0f565b8101600c81520301902080549060018101549060ff60028201541660ff600460038401549301541692604051948552602085015215156040840152606083015215156080820152f35b346103d65760603660031901126103d657604435602435600435610b29613705565b6103e88111610bdf57808211610b9a57818311610b4b57600455600855600955005b60405162461bcd60e51b815260206004820152602160248201527f456e746572707269736520666565206d757374206265203c3d2070726f2066656044820152606560f81b6064820152608490fd5b60405162461bcd60e51b815260206004820152601b60248201527f50726f20666565206d757374206265203c3d20626173652066656500000000006044820152606490fd5b60405162461bcd60e51b8152602060048201526011602482015270084c2e6ca40cccaca40e8dede40d0d2ced607b1b6044820152606490fd5b346103d65760003660031901126103d657600354600090818080805b848110610c6e57509060e0949291600754924794604051968752602087015260408601526060850152608084015260a083015260c0820152f35b80600052600d602052604060002060ff600482015416600881101597886103c057600182148015610d12575b15610cd857610ca890612dad565b975b6103c057600603610cbf575b50600101610c34565b600191936002610cd192015490613334565b9290610cb6565b9795866103c05760078203610cf657610cf090612dad565b95610caa565b9550600060048203610caa5793610d0c90612dad565b93610caa565b506000985060028214610c9a565b346103d65760003660031901126103d6576020600854604051908152f35b346103d65760003660031901126103d657602060405160008152f35b346103d65760003660031901126103d65760206040517f16ceee8289685dd2a02b9c8ae81d2df373176ce53519e6284e2a2950d6546ffa8152f35b346103d65760403660031901126103d6576001600160401b036004358181116103d657610dc6903690600401612bfc565b906024359081116103d657366023820112156103d657806004013591610deb83612be5565b91610df96040519384612a3c565b8383526020936024602085019160051b830101913683116103d657602401905b828210610e9c57505050610e2b613705565b610e388151835114613405565b60005b81518110156100195760019060ff610e62600282610e59858961347c565b5116111561338d565b610e6c828661347c565b5116828060a01b03610e7e838661347c565b51166000526012865260406000209060ff1982541617905501610e3b565b813560ff811681036103d6578152908501908501610e19565b346103d65760203660031901126103d6576020612710610ed9600454600435613321565b04604051908152f35b346103d65760403660031901126103d657610efb612bcf565b600435600052600060205260406000209060018060a01b0316600052602052602060ff604060002054166040519015158152f35b346103d65760003660031901126103d6576020600354604051908152f35b346103d65760003660031901126103d657610f66613705565b610f6e6137a5565b600160ff1960025416176002557f62e78cea01bee320cd4e420270b5ea74000d11b0c9f74754ebdbfc544b05a2586020604051338152a1005b346103d65760003660031901126103d6576020600454604051908152f35b346103d65760403660031901126103d657610fde612bb9565b6001600160a01b03166000908152600e60205260409020805460243591908210156103d65760209161100f91612d00565b90546040519160031b1c8152f35b346103d65760003660031901126103d6576020600954604051908152f35b346103d65760003660031901126103d65760206040517fa49807205ce4d355092ef5a8a18f56e8913cf4a201fbe287825b095693c217758152f35b346103d65760203660031901126103d6576001600160a01b03611097612bb9565b16600052600f6020526020604060002054604051908152f35b346103d65760203660031901126103d6577f528d9479e9f9889a87a3c30c7f7ba537e5e59c4c85a37733b16e57c62df6130260406004356110ef613705565b6110fd6103e8821115612d2e565b600454908060045582519182526020820152a1005b60803660031901126103d657611126612bb9565b6064356001600160401b0381116103d65760209161114b611183923690600401612b72565b906111546137a5565b6040519161116183612a21565b600083526040519161117283612a21565b600083526044359060243590612dd2565b604051908152f35b346103d65760203660031901126103d6576001600160a01b036111ac612bb9565b1660005260136020526020604060002054604051908152f35b346103d65760203660031901126103d657600435600052601160205261066d6111f16040600020612a5d565b604051918291602083526020830190612b32565b346103d65760003660031901126103d6576020600754604051908152f35b346103d6576020806003193601126103d6576001600160a01b03611245612bb9565b16600052600e8152604060002090604051808383829554938481520190600052836000209260005b858282106112985750505061128492500383612a3c565b61066d604051928284938452830190612ccc565b855484526001958601958895509301920161126d565b346103d65760003660031901126103d657602060ff600254166040519015158152f35b346103d65760403660031901126103d6576004356001600160401b036024358181116103d657611305903690600401612b72565b9161130e6137a5565b61131b6003548210612d69565b80600052602092600d8452611349604060002060018060a01b038082541633149182156115b9575050613490565b81600052600d8452604060002060048101805460ff81169260088410156103c057600193600181149081156115ae575b501561156b57806007600661139393015491015490613334565b42116115265760049060ff191617905582600052601085526040600020908251948511611510576113c482546129cc565b601f81116114d5575b508590601f861160011461144b575093807f9d956e00a78b28b7f3b6b25c60a4729355093de02cac8715ceb237725c0f58209495600091611440575b508160011b916000199060031b1c19161790555b61143260405191604083526040830190612b32565b9342908201528033940390a3005b905083015187611409565b90601f1986168360005287600020926000905b898383106114bd575050509186917f9d956e00a78b28b7f3b6b25c60a4729355093de02cac8715ceb237725c0f58209697600194106114a4575b5050811b01905561141d565b85015160001960f88460031b161c191690558780611498565b8785015186559481019493840193919091019061145e565b611500908360005287600020601f880160051c810191898910611506575b601f0160051c0190613341565b866113cd565b90915081906114f3565b634e487b7160e01b600052604160045260246000fd5b60405162461bcd60e51b815260048101889052601a60248201527f446973707574652077696e646f772068617320657870697265640000000000006044820152606490fd5b6064886040519062461bcd60e51b825280600483015260248201527f43616e6e6f74206469737075746520696e2063757272656e74207374617475736044820152fd5b600291501489611379565b6001919250015416331486806106e0565b346103d65760003660031901126103d6576020600a54604051908152f35b346103d65760003660031901126103d6576020600554604051908152f35b346103d65760003660031901126103d65761161f613705565b611627613a44565b478015611692576006546000918291829182916001600160a01b03165af161164d6133d5565b50156116595760018055005b60405162461bcd60e51b815260206004820152601160248201527015da5d1a191c985dd85b0819985a5b1959607a1b6044820152606490fd5b60405162461bcd60e51b81526020600482015260136024820152724e6f206665657320746f20776974686472617760681b6044820152606490fd5b346103d65760003660031901126103d6576006546040516001600160a01b039091168152602090f35b346103d65760203660031901126103d6576004356117126137a5565b61171a613a44565b6117276003548210612d69565b80600052600d602052604060002060ff60048201541660088110156103c05760018114908115611814575b50156117c157806007600661176c93015491015490613334565b42111561177c57610358906137c3565b60405162461bcd60e51b815260206004820152601e60248201527f446973707574652077696e646f7720686173206e6f74206578706972656400006044820152606490fd5b60405162461bcd60e51b815260206004820152602560248201527f43616e6e6f74206175746f2d72656c6561736520696e2063757272656e742073604482015264746174757360d81b6064820152608490fd5b600291501483611752565b346103d65760003660031901126103d657602047604051908152f35b346103d65760003660031901126103d657611854613705565b60025460ff8116156118935760ff19166002557f5db9ee0a495bf2e6ff9c91a7834c1ba4fdd244a5e8aa4e537bd38aeae4b073aa6020604051338152a1005b604051638dfc202b60e01b8152600490fd5b60803660031901126103d6576004356001600160401b0381116103d6576118d0903690600401612bfc565b6024356001600160401b0381116103d6576118ef903690600401612c6c565b906044356001600160401b0381116103d65761190f903690600401612c6c565b606435906001600160401b0382116103d657366023830112156103d657816004013561193a81612be5565b926119486040519485612a3c565b8184526024602085019260051b820101903682116103d65760248101925b828410611df657505050506119796137a5565b6119958351855181149081611deb575b81611de0575b50613405565b600a835111611d9b576119a8835161344a565b906000926000935b8551851015611a01576119f96001916119f36127106119e28b6119dc8b6119d63361398a565b9261347c565b51613321565b046119ed898c61347c565b51613334565b90613334565b9401936119b0565b86945085903403611d56579291906000935b8051851015611d2e5760035494611a2986612dad565b600355612710611a45611a3b3361398a565b6119dc848b61347c565b049580600052600d6020526040600020966001600160601b0360a01b33818a541617895560018060a01b03611a7a858761347c565b511660018a0191825416179055611a91838a61347c565b51600289015580600389015560048801600160ff19825416179055426005890155426006890155611ac2838761347c565b5115611d2657611ad2838761347c565b515b6007890155611ae3838661347c565b519788516001600160401b03811161151057611b0260098301546129cc565b601f8111611cf1575b50602099601f8211600114611c7a576001969798999a8291600092611c6f575b5050600019600383901b1c191690861b1760098201555b600a4691015533600052600e80602052611b60836040600020613358565b848060a01b03611b70858861347c565b5116600052602052611b86826040600020613358565b33600052600f806020526040600020611b9f8154612dad565b9055848060a01b03611bb1858861347c565b51166000526020526040600020611bc88154612dad565b905581611bd5848a61347c565b52838060a01b03611be6848761347c565b511690611bf3848b61347c565b51906040519182526020820152827f59e4b8728799382406714f1c57de5c893d2772f9a8bf9950c5afe4397e64865460403393a4611c31828961347c565b51906040519182524260208301527fbc6351b0e2a6a3f646e25885e97f2d7aef98ed917cad825bbcbc26d30bd1f0fb60403393a30193929190611a13565b015190508c80611b2b565b90996009830160005260206000209160005b601f198d168110611cd95750918b91600198999a9b9c938994601f19811610611cc0575b505050811b016009820155611b42565b015160001960f88460031b161c191690558c8080611cb0565b81830151845560019093019260209283019201611c8c565b611d2090600984016000526020600020601f840160051c8101916020851061150657601f0160051c0190613341565b8b611b0b565b600554611ad4565b61066d8433600052601360205242604060002055604051918291602083526020830190612ccc565b60405162461bcd60e51b815260206004820152601760248201527f496e636f727265637420746f74616c207061796d656e740000000000000000006044820152606490fd5b60405162461bcd60e51b815260206004820152601860248201527f4d617820313020657363726f77732070657220626174636800000000000000006044820152606490fd5b90508351148661198f565b835181149150611989565b83356001600160401b0381116103d657602091611e1a839260243691870101612b72565b815201930192611966565b346103d65760403660031901126103d657611e3e612bcf565b336001600160a01b03821603611e5a5761001990600435613ae5565b60405163334bd91960e11b8152600490fd5b346103d65760003660031901126103d6576020600b54604051908152f35b346103d65760403660031901126103d657610019600435611ea9612bcf565b90806000526000602052611ec460016040600020015461377f565b613a67565b346103d65760203660031901126103d657600435600052601060205261066d6111f16040600020612a5d565b346103d65760603660031901126103d6576024803580151591600435918381036103d6576001600160401b03916044358381116103d657611f3a903690600401612b72565b92611f436137a5565b611f4b613a44565b611f586003548610612d69565b3360009081527f124a13b16867194fc8fe1b97be0d668b89ac2a8dd77d418cf4feefa89864a62660209081526040909120549093907f16ceee8289685dd2a02b9c8ae81d2df373176ce53519e6284e2a2950d6546ffa9060ff16156122e7575085600052600d845260ff6004604060002001541660088110156122d25760040361229a5785600052600d84526040600020916011855260406000209086519081116122855761200782546129cc565b601f8111612255575b508086601f82116001146121f1576000916121e6575b508160011b916000199060031b1c19161790555b156121a05760048101600560ff1982541617905560018060a01b039081815416600052600f8452604060002080548061218e575b505081600182015416600052600f8452604060002080548061217c575b50506120a06002820154600383015490613334565b92600080808087878754165af16120b56133d5565b50156121405750927fcbaa929044d8cd35693529ba03a7800560ad8709121bf60076b0956a1e0d84d99492867fa6dc039ff751ad9725f7237e080b41d06166a7be987e9564cc289645ee7b7ede604060609561212d9854169381519081524286820152a35b6040519687528601526060850190612b32565b924260408201528033940390a360018055005b8460166064926040519262461bcd60e51b84526004840152820152751499599d5b99081d1c985b9cd9995c8819985a5b195960521b6044820152fd5b612185906133c8565b9055878061208b565b612197906133c8565b9055878061206e565b600401805460ff19166007179055507fcbaa929044d8cd35693529ba03a7800560ad8709121bf60076b0956a1e0d84d99161212d916060906121e1866137c3565b61211a565b90508701518a612026565b60008481528881209250601f198416905b898b838310612240575050509083600194939210612227575b5050811b01905561203a565b89015160001960f88460031b161c191690558a8061221b565b84015185556001909401939283019201612202565b61227f908360005287600020601f840160051c81019189851061150657601f0160051c0190613341565b89612010565b84634e487b7160e01b60005260416004526000fd5b604483600d868960005252600460ff816040600020015416916122cd6040519363f924664d60e01b855283850190612b02565b820152fd5b83634e487b7160e01b60005260216004526000fd5b836044916040519163e2517d3f60e01b8352336004840152820152fd5b346103d65760403660031901126103d65761231d612bb9565b6024359060ff82168092036103d657612334613705565b612341600283111561338d565b6001600160a01b03166000908152601260205260409020805460ff19169091179055005b346103d65760203660031901126103d65760043560005260006020526020600160406000200154604051908152f35b346103d65760203660031901126103d6576001600160a01b036123b5612bb9565b166000526012602052602060ff60406000205416604051908152f35b60c03660031901126103d6576123e5612bb9565b6001600160401b036064358181116103d657612405903690600401612b72565b916084358281116103d65761241e903690600401612b72565b60a4359283116103d65760209361243c611183943690600401612bfc565b926044359060243590612dd2565b346103d65760203660031901126103d657600435612466613705565b62015180811015806124e7575b156124b15760407f96e0f610d197acd2144db3bb338fe8cdc5544b8b21a40a14334068ac60e2717291600554908060055582519182526020820152a1005b60405162461bcd60e51b815260206004820152600e60248201526d496e76616c69642077696e646f7760901b6044820152606490fd5b5062278d00811115612473565b346103d6576020806003193601126103d657600435906125126137a5565b6003906125226003548410612d69565b82600052600d8152604060002091600c83019182541561271757600e8401913360005282825260ff604060002054166126df57600090600090600b8701908154925b8381106126a8575b5050501561262f575b156125eb5733600052526040600020600160ff19825416179055600d82019061259e8254612dad565b80925554111590816125bb575b506125b257005b610019906137c3565b60ff9150600401541660088110156103c057600181149081156125e0575b50826125ab565b6002915014826125d9565b6064906040519062461bcd60e51b82526004820152601a60248201527f4e6f7420616e20617574686f72697a656420617070726f7665720000000000006044820152fd5b508354336001600160a01b0391821614908115612698575b5015612654576001612575565b6064906040519062461bcd60e51b82526004820152601960248201527f4e6f7420617574686f72697a656420746f20617070726f7665000000000000006044820152fd5b9050600185015416331486612647565b6126b28184612d00565b905490831b1c6001600160a01b031633146126cf57600101612564565b505050905060019087808061256c565b60405162461bcd60e51b815260048101839052601060248201526f105b1c9958591e48185c1c1c9bdd995960821b6044820152606490fd5b6064906040519062461bcd60e51b8252600482015260166024820152754e6f742061206d756c74692d73696720657363726f7760501b6044820152fd5b346103d65760a03660031901126103d6576004356001600160401b0381116103d657612784903690600401612b72565b604435606435908115158092036103d65761279d613705565b82511561284f5761001992816127b96103e86004941115612d2e565b612833604051946127c986612a06565b602435865260208601928352604086019081526060860192608435845261280760206080890196600188528160405193828580945193849201612b0f565b8101600c81520301902096518755516001870155511515600286019060ff801983541691151516179055565b51600384015551151591019060ff801983541691151516179055565b60405162461bcd60e51b815260206004820152601460248201527315195b5c1b185d19481251081c995c5d5a5c995960621b6044820152606490fd5b346103d65760203660031901126103d65760043563ffffffff60e01b81168091036103d657602090637965db0b60e01b81149081156128d0575b506040519015158152f35b6301ffc9a760e01b149050826128c5565b346103d65760203660031901126103d657600435600052600d6020526040600020600160a01b60019003808254169060018301541690600283015492600381015490600481015460ff169260058201549060068301546007840154600885015460ff16916009860161295290612a5d565b94600a87015498600c88015497600d0154986040519c8d9c8d6101a09981526020015260408d015260608c015260808b0161298c91612b02565b60a08a015260c089015260e088015215156101008701528061012087015285016129b591612b32565b926101408501526101608401526101808301520390f35b90600182811c921680156129fc575b60208310146129e657565b634e487b7160e01b600052602260045260246000fd5b91607f16916129db565b60a081019081106001600160401b0382111761151057604052565b602081019081106001600160401b0382111761151057604052565b90601f801991011681019081106001600160401b0382111761151057604052565b90604051918260008254612a70816129cc565b90818452602094600191600181169081600014612ae05750600114612aa1575b505050612a9f92500383612a3c565b565b600090815285812095935091905b818310612ac8575050612a9f9350820101388080612a90565b85548884018501529485019487945091830191612aaf565b92505050612a9f94925060ff191682840152151560051b820101388080612a90565b9060088210156103c05752565b60005b838110612b225750506000910152565b8181015183820152602001612b12565b90602091612b4b81518092818552858086019101612b0f565b601f01601f1916010190565b6001600160401b03811161151057601f01601f191660200190565b81601f820112156103d657803590612b8982612b57565b92612b976040519485612a3c565b828452602083830101116103d657816000926020809301838601378301015290565b600435906001600160a01b03821682036103d657565b602435906001600160a01b03821682036103d657565b6001600160401b0381116115105760051b60200190565b9080601f830112156103d6576020908235612c1681612be5565b93612c246040519586612a3c565b81855260208086019260051b8201019283116103d657602001905b828210612c4d575050505090565b81356001600160a01b03811681036103d6578152908301908301612c3f565b9080601f830112156103d6576020908235612c8681612be5565b93612c946040519586612a3c565b81855260208086019260051b8201019283116103d657602001905b828210612cbd575050505090565b81358152908301908301612caf565b90815180825260208080930193019160005b828110612cec575050505090565b835185529381019392810192600101612cde565b8054821015612d185760005260206000200190600090565b634e487b7160e01b600052603260045260246000fd5b15612d3557565b60405162461bcd60e51b815260206004820152600c60248201526b08ccaca40e8dede40d0d2ced60a31b6044820152606490fd5b15612d7057565b60405162461bcd60e51b8152602060048201526015602482015274115cd8dc9bddc8191bd95cc81b9bdd08195e1a5cdd605a1b6044820152606490fd5b6000198114612dbc5760010190565b634e487b7160e01b600052601160045260246000fd5b939193929092612de06137a5565b6001600160a01b0390811694928386156132e35733871461329257851561324d57612e0a3361398a565b918051801515908161321f575b50613191575b5050612e2c6127109186613321565b0492612e388486613334565b3461316b575b5060035496612e4c88612dad565b600355600092888452602094600d865260408520936001600160601b0360a01b33818754161786558a60018701918254161790558860028601558760038601556004850160ff198154169055426005860155801515600014613162575b60078501556009840181516001600160401b039283821161314e578190612ed084546129cc565b601f8111613120575b508990601f83116001146130b85789926130ad575b50508160011b916000199060031b1c19161790555b46600a850155600a5488108015906130a3575b612fb6575b50505050604090338152600e8352612f3587838320613358565b858152600e8352612f4887838320613358565b338152600f8352818120612f5c8154612dad565b9055858152600f835220612f708154612dad565b9055604051928352820152827f59e4b8728799382406714f1c57de5c893d2772f9a8bf9950c5afe4397e64865460403393a434612faa5790565b612fb3816139c7565b90565b825191821561308e57600b850191831161307a57600160401b831161307a578154838355808410613060575b5086840191865286862090865b84811061304c575050505050516001811160001461303d5760011c600181018091116130295760409291600c905b01555b90388080612f1b565b634e487b7160e01b83526011600452602483fd5b5090604091600c60019161301d565b835182168382015592880192600101612fef565b828752878720613074918101908501613341565b38612fe2565b634e487b7160e01b86526041600452602486fd5b5050505090604091600c600b54910155613020565b5082511515612f16565b015190503880612eee565b92508389528989209089935b8b601f198516861061310757506001945083601f198116106130ee575b505050811b019055612f03565b015160001960f88460031b161c191690553880806130e1565b82820151845594850194600190930192909101906130c4565b61314890858b528b8b20601f850160051c8101918d861061150657601f0160051c0190613341565b38612ed9565b634e487b7160e01b88526041600452602488fd5b50600554612ea9565b348114612e3e575b604490604051906311ebdab360e21b82523460048301526024820152fd5b60206131aa918160405193828580945193849201612b0f565b8101600c81520301902090604051916131c283612a06565b805492838152608060ff6004600185015494856020860152826002820154161515604086015260038101546060860152015416151591015280613217575b501561320d575b80612e1d565b9350612e2c613207565b925038613200565b60ff915060049060206040518261323a829483858a01612b0f565b8101600c81520301902001541638612e17565b60405162461bcd60e51b815260206004820152601d60248201527f416d6f756e74206d7573742062652067726561746572207468616e20300000006044820152606490fd5b60405162461bcd60e51b815260206004820152602360248201527f427579657220616e642073656c6c65722063616e6e6f74206265207468652073604482015262616d6560e81b6064820152608490fd5b60405162461bcd60e51b8152602060048201526016602482015275496e76616c69642073656c6c6572206164647265737360501b6044820152606490fd5b81810292918115918404141715612dbc57565b91908201809211612dbc57565b81811061334c575050565b60008155600101613341565b8054600160401b8110156115105761337591600182018155612d00565b819291549060031b91821b91600019901b1916179055565b1561339457565b60405162461bcd60e51b815260206004820152600c60248201526b24b73b30b634b2103a34b2b960a11b6044820152606490fd5b8015612dbc576000190190565b3d15613400573d906133e682612b57565b916133f46040519384612a3c565b82523d6000602084013e565b606090565b1561340c57565b60405162461bcd60e51b8152602060048201526016602482015275082e4e4c2f240d8cadccee8d0e640dad2e6dac2e8c6d60531b6044820152606490fd5b9061345482612be5565b6134616040519182612a3c565b8281528092613472601f1991612be5565b0190602036910137565b8051821015612d185760209160051b010190565b1561349757565b60405162461bcd60e51b815260206004820152601c60248201527f4f6e6c7920657363726f7720706172746965732063616e2063616c6c000000006044820152606490fd5b156134e357565b60405162461bcd60e51b815260206004820152601360248201527213db9b1e48189d5e595c8818d85b8818d85b1b606a1b6044820152606490fd5b600092600092600354935b84811061365b57508461353c8285613334565b11156136555750818403848111612dbc57935b80831015613637576135608561344a565b9060009260009660005b8781108061362e575b156136235780600052600d8060205260ff6040908060048360002001541691600892838110156103c0576001149384156135fc575b505050506135bf575b6135ba90612dad565b61356a565b94868110156135dd575b6135d56135ba91612dad565b9590506135b1565b976135d56135f382886108806135ba958a61347c565b999150506135c9565b60049293945085600052602052600020015416908110156103c057600214388080806135a8565b505093509350935050565b50818910613573565b935091505060405161364881612a21565b6000815260003681379190565b9361354f565b80600052600d60209080825260ff600490604081838260002001541693600894858110156136f0576001149586156136b5575b5050505050506136a1575b600101613529565b946136ad600191612dad565b959050613699565b600088815291905220820154169250908210156136db575060021438808080808061368e565b602190634e487b7160e01b6000525260246000fd5b602185634e487b7160e01b6000525260246000fd5b3360009081527f7d7ffb7a348e1c6a02869081a26547b49160dd3df72d1d75a570eb9b698292ec60205260409020547fa49807205ce4d355092ef5a8a18f56e8913cf4a201fbe287825b095693c217759060ff16156137615750565b6044906040519063e2517d3f60e01b82523360048301526024820152fd5b80600052600060205260406000203360005260205260ff60406000205416156137615750565b60ff600254166137b157565b60405163d93c066560e01b8152600490fd5b6000908082526020600d81526040808420916004830160ff1990600782825416179055600884019081549060ff8216158061397d575b6138ff575b5050506001830160018060a01b039081815416968080808060028a019b8c54905af16138286133d5565b50156138c2578286949286600393606098967f8e8ac7b23f8e5ccc2b733bb2e48037ab7aadc18ff88ba81ff61042ab6e1ee6929a54168152600f86528181208054806138b0575b5050838354168152600f86522080548061389e575b5050541697549301549082519384528301524290820152a3565b6138a7906133c8565b90553880613884565b6138b9906133c8565b9055388061386f565b845162461bcd60e51b815260048101859052601660248201527514d95b1b195c881d1c985b9cd9995c8819985a5b195960521b6044820152606490fd5b60019116179055848080806003870161391b8154600754613334565b6007556006549054906001600160a01b03165af16139376133d5565b5015613945573880806137fe565b606491519062461bcd60e51b825260048201526013602482015272119959481d1c985b9cd9995c8819985a5b1959606a1b6044820152fd5b50600386015415156137f9565b6001600160a01b031660009081526012602052604090205460ff16600281146139c0576001146139ba5760045490565b60085490565b5060095490565b80600052600d6020526040600020906002820154916139ea600382015484613334565b803403613173575060408160047fbc6351b0e2a6a3f646e25885e97f2d7aef98ed917cad825bbcbc26d30bd1f0fb9301600160ff1982541617905542600682015560018060a01b03905416938151908152426020820152a3565b600260015414613a55576002600155565b604051633ee5aeb560e01b8152600490fd5b9060009180835282602052604083209160018060a01b03169182845260205260ff60408420541615600014613ae057808352826020526040832082845260205260408320600160ff198254161790557f2f8788117e7eff1d82e926ec794901d17c78024a50270940304540a733656f0d339380a4600190565b505090565b9060009180835282602052604083209160018060a01b03169182845260205260ff604084205416600014613ae05780835282602052604083208284526020526040832060ff1981541690557ff6391f5c32d9c69d2a47ea670b442974b53935d1edc7fd64eb21e047a839171b339380a460019056fea2646970667358221220cb71d875295bc9acf853026ffb2738121b9789bcdcc571ea2e2fd408ebfb7bfe64736f6c634300081900332f8788117e7eff1d82e926ec794901d17c78024a50270940304540a733656f0d",
    "linkReferences": {}
  },
  "methodIdentifiers": {
    "ADMIN_ROLE()": "75b238fc",
    "ARBITRATOR_ROLE()": "9cea0787",
    "BASIS_POINTS()": "e1f1c4a7",
    "DEFAULT_ADMIN_ROLE()": "a217fddf",
    "approveEscrow(uint256)": "03fce7ef",
    "autoRelease(uint256)": "459b860e",
    "baseFeePercentage()": "8375bb39",
    "batchCreateEscrows(address[],uint256[],uint256[],string[])": "39f5687e",
    "batchSetUserSubscriptionTiers(address[],uint8[])": "9b71b964",
    "calculateFee(uint256)": "99a5d747",
    "cancelEscrow(uint256)": "e0182436",
    "confirmDelivery(uint256)": "fd84cb97",
    "createEscrow(address,uint256,uint256,string)": "683f31d3",
    "createEscrowWithTemplate(address,uint256,uint256,string,string,address[])": "0e681582",
    "defaultApprovalsRequired()": "344f8ead",
    "defaultDisputeWindow()": "4937a943",
    "disputeReasons(uint256)": "2eb52425",
    "enterpriseTierFeePercentage()": "7627215c",
    "escrows(uint256)": "012f52ee",
    "feeRecipient()": "46904840",
    "fundEscrow(uint256)": "c9c31af5",
    "getActiveEscrows(uint256,uint256)": "f877eb7b",
    "getAvailableFees()": "40806f7c",
    "getDisputeDetails(uint256)": "ea89735d",
    "getDisputedEscrows()": "d59553f3",
    "getEscrowDetails(uint256)": "b996ec2a",
    "getEscrowStats()": "acff2b09",
    "getRoleAdmin(bytes32)": "248a9ca3",
    "getUserEscrows(address)": "5ccea85e",
    "grantRole(bytes32,address)": "2f2ff15d",
    "hasRole(bytes32,address)": "91d14854",
    "lastBatchOperation(address)": "67b792e6",
    "markDelivered(uint256)": "eb826a5f",
    "multiSigThreshold()": "4badfeb2",
    "nextEscrowId()": "89cb29dd",
    "pause()": "8456cb59",
    "paused()": "5c975abb",
    "proTierFeePercentage()": "a9c73ddd",
    "raiseDispute(uint256,string)": "5aef573c",
    "renounceRole(bytes32,address)": "36568abe",
    "resolutionDetails(uint256)": "61b89558",
    "resolveDispute(uint256,bool,string)": "2840662d",
    "revokeRole(bytes32,address)": "d547741f",
    "setEscrowTemplate(string,uint256,uint256,bool,uint256)": "03e88033",
    "setUserSubscriptionTier(address,uint8)": "2682ff42",
    "supportsInterface(bytes4)": "01ffc9a7",
    "templates(string)": "b22beeda",
    "totalFeesCollected()": "60c6d8ae",
    "unpause()": "3f4ba83a",
    "updateDefaultDisputeWindow(uint256)": "0707950d",
    "updateFeePercentage(uint256)": "6cad3fb0",
    "updateFeeRecipient(address)": "f160d369",
    "updateFeeTiers(uint256,uint256,uint256)": "b0eacf78",
    "userActiveEscrowCount(address)": "6f346d8c",
    "userEscrows(address,uint256)": "7f944dd0",
    "userSubscriptionTier(address)": "16b305ee",
    "withdrawFees()": "476343ee"
  },
  "id": 49
}