{
  "abi": [
    {
      "type": "constructor",
      "inputs": [
        {
          "name": "admin",
          "type": "address",
          "internalType": "address"
        },
        {
          "name": "priceWeiPro",
          "type": "uint256",
          "internalType": "uint256"
        },
        {
          "name": "priceWeiEnterprise",
          "type": "uint256",
          "internalType": "uint256"
        }
      ],
      "stateMutability": "nonpayable"
    },
    {
      "type": "function",
      "name": "ADMIN_ROLE",
      "inputs": [],
      "outputs": [
        {
          "name": "",
          "type": "bytes32",
          "internalType": "bytes32"
        }
      ],
      "stateMutability": "view"
    },
    {
      "type": "function",
      "name": "DEFAULT_ADMIN_ROLE",
      "inputs": [],
      "outputs": [
        {
          "name": "",
          "type": "bytes32",
          "internalType": "bytes32"
        }
      ],
      "stateMutability": "view"
    },
    {
      "type": "function",
      "name": "PERIOD",
      "inputs": [],
      "outputs": [
        {
          "name": "",
          "type": "uint256",
          "internalType": "uint256"
        }
      ],
      "stateMutability": "view"
    },
    {
      "type": "function",
      "name": "createPlan",
      "inputs": [
        {
          "name": "planKey",
          "type": "uint8",
          "internalType": "uint8"
        },
        {
          "name": "name",
          "type": "string",
          "internalType": "string"
        },
        {
          "name": "displayName",
          "type": "string",
          "internalType": "string"
        },
        {
          "name": "description",
          "type": "string",
          "internalType": "string"
        },
        {
          "name": "priceWei",
          "type": "uint256",
          "internalType": "uint256"
        },
        {
          "name": "maxMembers",
          "type": "uint256",
          "internalType": "uint256"
        },
        {
          "name": "features",
          "type": "string[]",
          "internalType": "string[]"
        },
        {
          "name": "isActive",
          "type": "bool",
          "internalType": "bool"
        },
        {
          "name": "sortOrder",
          "type": "uint256",
          "internalType": "uint256"
        },
        {
          "name": "isTeamPlan",
          "type": "bool",
          "internalType": "bool"
        },
        {
          "name": "feeTierBasisPoints",
          "type": "uint256",
          "internalType": "uint256"
        }
      ],
      "outputs": [],
      "stateMutability": "nonpayable"
    },
    {
      "type": "function",
      "name": "deletePlan",
      "inputs": [
        {
          "name": "planKey",
          "type": "uint8",
          "internalType": "uint8"
        }
      ],
      "outputs": [],
      "stateMutability": "nonpayable"
    },
    {
      "type": "function",
      "name": "earningRecords",
      "inputs": [
        {
          "name": "",
          "type": "uint256",
          "internalType": "uint256"
        }
      ],
      "outputs": [
        {
          "name": "payer",
          "type": "address",
          "internalType": "address"
        },
        {
          "name": "team",
          "type": "address",
          "internalType": "address"
        },
        {
          "name": "planKey",
          "type": "uint8",
          "internalType": "uint8"
        },
        {
          "name": "amount",
          "type": "uint256",
          "internalType": "uint256"
        },
        {
          "name": "token",
          "type": "address",
          "internalType": "address"
        },
        {
          "name": "timestamp",
          "type": "uint256",
          "internalType": "uint256"
        }
      ],
      "stateMutability": "view"
    },
    {
      "type": "function",
      "name": "getActiveSubscriptionPlan",
      "inputs": [
        {
          "name": "team",
          "type": "address",
          "internalType": "address"
        }
      ],
      "outputs": [
        {
          "name": "",
          "type": "uint8",
          "internalType": "uint8"
        }
      ],
      "stateMutability": "view"
    },
    {
      "type": "function",
      "name": "getAllActivePlans",
      "inputs": [],
      "outputs": [
        {
          "name": "",
          "type": "tuple[]",
          "internalType": "struct SubscriptionManager.Plan[]",
          "components": [
            {
              "name": "planKey",
              "type": "uint8",
              "internalType": "uint8"
            },
            {
              "name": "name",
              "type": "string",
              "internalType": "string"
            },
            {
              "name": "displayName",
              "type": "string",
              "internalType": "string"
            },
            {
              "name": "description",
              "type": "string",
              "internalType": "string"
            },
            {
              "name": "priceWei",
              "type": "uint256",
              "internalType": "uint256"
            },
            {
              "name": "maxMembers",
              "type": "uint256",
              "internalType": "uint256"
            },
            {
              "name": "features",
              "type": "string[]",
              "internalType": "string[]"
            },
            {
              "name": "isActive",
              "type": "bool",
              "internalType": "bool"
            },
            {
              "name": "sortOrder",
              "type": "uint256",
              "internalType": "uint256"
            },
            {
              "name": "isTeamPlan",
              "type": "bool",
              "internalType": "bool"
            },
            {
              "name": "feeTierBasisPoints",
              "type": "uint256",
              "internalType": "uint256"
            }
          ]
        }
      ],
      "stateMutability": "view"
    },
    {
      "type": "function",
      "name": "getAllPlanKeys",
      "inputs": [],
      "outputs": [
        {
          "name": "",
          "type": "uint8[]",
          "internalType": "uint8[]"
        }
      ],
      "stateMutability": "view"
    },
    {
      "type": "function",
      "name": "getAllPlans",
      "inputs": [],
      "outputs": [
        {
          "name": "",
          "type": "tuple[]",
          "internalType": "struct SubscriptionManager.Plan[]",
          "components": [
            {
              "name": "planKey",
              "type": "uint8",
              "internalType": "uint8"
            },
            {
              "name": "name",
              "type": "string",
              "internalType": "string"
            },
            {
              "name": "displayName",
              "type": "string",
              "internalType": "string"
            },
            {
              "name": "description",
              "type": "string",
              "internalType": "string"
            },
            {
              "name": "priceWei",
              "type": "uint256",
              "internalType": "uint256"
            },
            {
              "name": "maxMembers",
              "type": "uint256",
              "internalType": "uint256"
            },
            {
              "name": "features",
              "type": "string[]",
              "internalType": "string[]"
            },
            {
              "name": "isActive",
              "type": "bool",
              "internalType": "bool"
            },
            {
              "name": "sortOrder",
              "type": "uint256",
              "internalType": "uint256"
            },
            {
              "name": "isTeamPlan",
              "type": "bool",
              "internalType": "bool"
            },
            {
              "name": "feeTierBasisPoints",
              "type": "uint256",
              "internalType": "uint256"
            }
          ]
        }
      ],
      "stateMutability": "view"
    },
    {
      "type": "function",
      "name": "getAvailableEarnings",
      "inputs": [],
      "outputs": [
        {
          "name": "",
          "type": "uint256",
          "internalType": "uint256"
        }
      ],
      "stateMutability": "view"
    },
    {
      "type": "function",
      "name": "getAvailableTokenEarnings",
      "inputs": [
        {
          "name": "token",
          "type": "address",
          "internalType": "address"
        }
      ],
      "outputs": [
        {
          "name": "",
          "type": "uint256",
          "internalType": "uint256"
        }
      ],
      "stateMutability": "view"
    },
    {
      "type": "function",
      "name": "getEarningRecord",
      "inputs": [
        {
          "name": "index",
          "type": "uint256",
          "internalType": "uint256"
        }
      ],
      "outputs": [
        {
          "name": "",
          "type": "tuple",
          "internalType": "struct SubscriptionManager.EarningRecord",
          "components": [
            {
              "name": "payer",
              "type": "address",
              "internalType": "address"
            },
            {
              "name": "team",
              "type": "address",
              "internalType": "address"
            },
            {
              "name": "planKey",
              "type": "uint8",
              "internalType": "uint8"
            },
            {
              "name": "amount",
              "type": "uint256",
              "internalType": "uint256"
            },
            {
              "name": "token",
              "type": "address",
              "internalType": "address"
            },
            {
              "name": "timestamp",
              "type": "uint256",
              "internalType": "uint256"
            }
          ]
        }
      ],
      "stateMutability": "view"
    },
    {
      "type": "function",
      "name": "getEarningRecords",
      "inputs": [
        {
          "name": "startIndex",
          "type": "uint256",
          "internalType": "uint256"
        },
        {
          "name": "endIndex",
          "type": "uint256",
          "internalType": "uint256"
        }
      ],
      "outputs": [
        {
          "name": "",
          "type": "tuple[]",
          "internalType": "struct SubscriptionManager.EarningRecord[]",
          "components": [
            {
              "name": "payer",
              "type": "address",
              "internalType": "address"
            },
            {
              "name": "team",
              "type": "address",
              "internalType": "address"
            },
            {
              "name": "planKey",
              "type": "uint8",
              "internalType": "uint8"
            },
            {
              "name": "amount",
              "type": "uint256",
              "internalType": "uint256"
            },
            {
              "name": "token",
              "type": "address",
              "internalType": "address"
            },
            {
              "name": "timestamp",
              "type": "uint256",
              "internalType": "uint256"
            }
          ]
        }
      ],
      "stateMutability": "view"
    },
    {
      "type": "function",
      "name": "getEarningRecordsCount",
      "inputs": [],
      "outputs": [
        {
          "name": "",
          "type": "uint256",
          "internalType": "uint256"
        }
      ],
      "stateMutability": "view"
    },
    {
      "type": "function",
      "name": "getEarningsSummary",
      "inputs": [],
      "outputs": [
        {
          "name": "totalNativeEarnings",
          "type": "uint256",
          "internalType": "uint256"
        },
        {
          "name": "totalNativeWithdrawn",
          "type": "uint256",
          "internalType": "uint256"
        },
        {
          "name": "availableNativeEarnings",
          "type": "uint256",
          "internalType": "uint256"
        },
        {
          "name": "recordsCount",
          "type": "uint256",
          "internalType": "uint256"
        }
      ],
      "stateMutability": "view"
    },
    {
      "type": "function",
      "name": "getPlan",
      "inputs": [
        {
          "name": "planKey",
          "type": "uint8",
          "internalType": "uint8"
        }
      ],
      "outputs": [
        {
          "name": "",
          "type": "tuple",
          "internalType": "struct SubscriptionManager.Plan",
          "components": [
            {
              "name": "planKey",
              "type": "uint8",
              "internalType": "uint8"
            },
            {
              "name": "name",
              "type": "string",
              "internalType": "string"
            },
            {
              "name": "displayName",
              "type": "string",
              "internalType": "string"
            },
            {
              "name": "description",
              "type": "string",
              "internalType": "string"
            },
            {
              "name": "priceWei",
              "type": "uint256",
              "internalType": "uint256"
            },
            {
              "name": "maxMembers",
              "type": "uint256",
              "internalType": "uint256"
            },
            {
              "name": "features",
              "type": "string[]",
              "internalType": "string[]"
            },
            {
              "name": "isActive",
              "type": "bool",
              "internalType": "bool"
            },
            {
              "name": "sortOrder",
              "type": "uint256",
              "internalType": "uint256"
            },
            {
              "name": "isTeamPlan",
              "type": "bool",
              "internalType": "bool"
            },
            {
              "name": "feeTierBasisPoints",
              "type": "uint256",
              "internalType": "uint256"
            }
          ]
        }
      ],
      "stateMutability": "view"
    },
    {
      "type": "function",
      "name": "getPlanFeatures",
      "inputs": [
        {
          "name": "planKey",
          "type": "uint8",
          "internalType": "uint8"
        }
      ],
      "outputs": [
        {
          "name": "",
          "type": "string[]",
          "internalType": "string[]"
        }
      ],
      "stateMutability": "view"
    },
    {
      "type": "function",
      "name": "getPlanFeeTier",
      "inputs": [
        {
          "name": "planKey",
          "type": "uint8",
          "internalType": "uint8"
        }
      ],
      "outputs": [
        {
          "name": "",
          "type": "uint256",
          "internalType": "uint256"
        }
      ],
      "stateMutability": "view"
    },
    {
      "type": "function",
      "name": "getRoleAdmin",
      "inputs": [
        {
          "name": "role",
          "type": "bytes32",
          "internalType": "bytes32"
        }
      ],
      "outputs": [
        {
          "name": "",
          "type": "bytes32",
          "internalType": "bytes32"
        }
      ],
      "stateMutability": "view"
    },
    {
      "type": "function",
      "name": "getUserFeeTier",
      "inputs": [
        {
          "name": "team",
          "type": "address",
          "internalType": "address"
        }
      ],
      "outputs": [
        {
          "name": "",
          "type": "uint256",
          "internalType": "uint256"
        }
      ],
      "stateMutability": "view"
    },
    {
      "type": "function",
      "name": "grantRole",
      "inputs": [
        {
          "name": "role",
          "type": "bytes32",
          "internalType": "bytes32"
        },
        {
          "name": "account",
          "type": "address",
          "internalType": "address"
        }
      ],
      "outputs": [],
      "stateMutability": "nonpayable"
    },
    {
      "type": "function",
      "name": "hasRole",
      "inputs": [
        {
          "name": "role",
          "type": "bytes32",
          "internalType": "bytes32"
        },
        {
          "name": "account",
          "type": "address",
          "internalType": "address"
        }
      ],
      "outputs": [
        {
          "name": "",
          "type": "bool",
          "internalType": "bool"
        }
      ],
      "stateMutability": "view"
    },
    {
      "type": "function",
      "name": "paidUntil",
      "inputs": [
        {
          "name": "team",
          "type": "address",
          "internalType": "address"
        }
      ],
      "outputs": [
        {
          "name": "",
          "type": "uint256",
          "internalType": "uint256"
        }
      ],
      "stateMutability": "view"
    },
    {
      "type": "function",
      "name": "paySubscription",
      "inputs": [
        {
          "name": "team",
          "type": "address",
          "internalType": "address"
        },
        {
          "name": "planKey",
          "type": "uint8",
          "internalType": "uint8"
        }
      ],
      "outputs": [],
      "stateMutability": "payable"
    },
    {
      "type": "function",
      "name": "paySubscriptionWithToken",
      "inputs": [
        {
          "name": "team",
          "type": "address",
          "internalType": "address"
        },
        {
          "name": "planKey",
          "type": "uint8",
          "internalType": "uint8"
        },
        {
          "name": "token",
          "type": "address",
          "internalType": "address"
        },
        {
          "name": "amount",
          "type": "uint256",
          "internalType": "uint256"
        }
      ],
      "outputs": [],
      "stateMutability": "nonpayable"
    },
    {
      "type": "function",
      "name": "planExists",
      "inputs": [
        {
          "name": "",
          "type": "uint8",
          "internalType": "uint8"
        }
      ],
      "outputs": [
        {
          "name": "",
          "type": "bool",
          "internalType": "bool"
        }
      ],
      "stateMutability": "view"
    },
    {
      "type": "function",
      "name": "planExistsCheck",
      "inputs": [
        {
          "name": "planKey",
          "type": "uint8",
          "internalType": "uint8"
        }
      ],
      "outputs": [
        {
          "name": "",
          "type": "bool",
          "internalType": "bool"
        }
      ],
      "stateMutability": "view"
    },
    {
      "type": "function",
      "name": "planKeys",
      "inputs": [
        {
          "name": "",
          "type": "uint256",
          "internalType": "uint256"
        }
      ],
      "outputs": [
        {
          "name": "",
          "type": "uint8",
          "internalType": "uint8"
        }
      ],
      "stateMutability": "view"
    },
    {
      "type": "function",
      "name": "planPriceWei",
      "inputs": [
        {
          "name": "",
          "type": "uint8",
          "internalType": "uint8"
        }
      ],
      "outputs": [
        {
          "name": "",
          "type": "uint256",
          "internalType": "uint256"
        }
      ],
      "stateMutability": "view"
    },
    {
      "type": "function",
      "name": "plans",
      "inputs": [
        {
          "name": "",
          "type": "uint8",
          "internalType": "uint8"
        }
      ],
      "outputs": [
        {
          "name": "planKey",
          "type": "uint8",
          "internalType": "uint8"
        },
        {
          "name": "name",
          "type": "string",
          "internalType": "string"
        },
        {
          "name": "displayName",
          "type": "string",
          "internalType": "string"
        },
        {
          "name": "description",
          "type": "string",
          "internalType": "string"
        },
        {
          "name": "priceWei",
          "type": "uint256",
          "internalType": "uint256"
        },
        {
          "name": "maxMembers",
          "type": "uint256",
          "internalType": "uint256"
        },
        {
          "name": "isActive",
          "type": "bool",
          "internalType": "bool"
        },
        {
          "name": "sortOrder",
          "type": "uint256",
          "internalType": "uint256"
        },
        {
          "name": "isTeamPlan",
          "type": "bool",
          "internalType": "bool"
        },
        {
          "name": "feeTierBasisPoints",
          "type": "uint256",
          "internalType": "uint256"
        }
      ],
      "stateMutability": "view"
    },
    {
      "type": "function",
      "name": "renounceRole",
      "inputs": [
        {
          "name": "role",
          "type": "bytes32",
          "internalType": "bytes32"
        },
        {
          "name": "callerConfirmation",
          "type": "address",
          "internalType": "address"
        }
      ],
      "outputs": [],
      "stateMutability": "nonpayable"
    },
    {
      "type": "function",
      "name": "revokeRole",
      "inputs": [
        {
          "name": "role",
          "type": "bytes32",
          "internalType": "bytes32"
        },
        {
          "name": "account",
          "type": "address",
          "internalType": "address"
        }
      ],
      "outputs": [],
      "stateMutability": "nonpayable"
    },
    {
      "type": "function",
      "name": "setPlanPrice",
      "inputs": [
        {
          "name": "planKey",
          "type": "uint8",
          "internalType": "uint8"
        },
        {
          "name": "newPriceWei",
          "type": "uint256",
          "internalType": "uint256"
        }
      ],
      "outputs": [],
      "stateMutability": "nonpayable"
    },
    {
      "type": "function",
      "name": "setSupportedToken",
      "inputs": [
        {
          "name": "token",
          "type": "address",
          "internalType": "address"
        },
        {
          "name": "supported",
          "type": "bool",
          "internalType": "bool"
        }
      ],
      "outputs": [],
      "stateMutability": "nonpayable"
    },
    {
      "type": "function",
      "name": "supportedTokens",
      "inputs": [
        {
          "name": "",
          "type": "address",
          "internalType": "address"
        }
      ],
      "outputs": [
        {
          "name": "",
          "type": "bool",
          "internalType": "bool"
        }
      ],
      "stateMutability": "view"
    },
    {
      "type": "function",
      "name": "supportsInterface",
      "inputs": [
        {
          "name": "id",
          "type": "bytes4",
          "internalType": "bytes4"
        }
      ],
      "outputs": [
        {
          "name": "",
          "type": "bool",
          "internalType": "bool"
        }
      ],
      "stateMutability": "view"
    },
    {
      "type": "function",
      "name": "tokenEarnings",
      "inputs": [
        {
          "name": "",
          "type": "address",
          "internalType": "address"
        }
      ],
      "outputs": [
        {
          "name": "",
          "type": "uint256",
          "internalType": "uint256"
        }
      ],
      "stateMutability": "view"
    },
    {
      "type": "function",
      "name": "tokenWithdrawn",
      "inputs": [
        {
          "name": "",
          "type": "address",
          "internalType": "address"
        }
      ],
      "outputs": [
        {
          "name": "",
          "type": "uint256",
          "internalType": "uint256"
        }
      ],
      "stateMutability": "view"
    },
    {
      "type": "function",
      "name": "totalEarnings",
      "inputs": [],
      "outputs": [
        {
          "name": "",
          "type": "uint256",
          "internalType": "uint256"
        }
      ],
      "stateMutability": "view"
    },
    {
      "type": "function",
      "name": "totalWithdrawn",
      "inputs": [],
      "outputs": [
        {
          "name": "",
          "type": "uint256",
          "internalType": "uint256"
        }
      ],
      "stateMutability": "view"
    },
    {
      "type": "function",
      "name": "updatePlan",
      "inputs": [
        {
          "name": "planKey",
          "type": "uint8",
          "internalType": "uint8"
        },
        {
          "name": "name",
          "type": "string",
          "internalType": "string"
        },
        {
          "name": "displayName",
          "type": "string",
          "internalType": "string"
        },
        {
          "name": "description",
          "type": "string",
          "internalType": "string"
        },
        {
          "name": "priceWei",
          "type": "uint256",
          "internalType": "uint256"
        },
        {
          "name": "maxMembers",
          "type": "uint256",
          "internalType": "uint256"
        },
        {
          "name": "features",
          "type": "string[]",
          "internalType": "string[]"
        },
        {
          "name": "isActive",
          "type": "bool",
          "internalType": "bool"
        },
        {
          "name": "sortOrder",
          "type": "uint256",
          "internalType": "uint256"
        },
        {
          "name": "isTeamPlan",
          "type": "bool",
          "internalType": "bool"
        },
        {
          "name": "feeTierBasisPoints",
          "type": "uint256",
          "internalType": "uint256"
        }
      ],
      "outputs": [],
      "stateMutability": "nonpayable"
    },
    {
      "type": "function",
      "name": "withdrawEarnings",
      "inputs": [
        {
          "name": "to",
          "type": "address",
          "internalType": "address payable"
        },
        {
          "name": "amount",
          "type": "uint256",
          "internalType": "uint256"
        }
      ],
      "outputs": [],
      "stateMutability": "nonpayable"
    },
    {
      "type": "function",
      "name": "withdrawTokenEarnings",
      "inputs": [
        {
          "name": "token",
          "type": "address",
          "internalType": "address"
        },
        {
          "name": "to",
          "type": "address",
          "internalType": "address"
        },
        {
          "name": "amount",
          "type": "uint256",
          "internalType": "uint256"
        }
      ],
      "outputs": [],
      "stateMutability": "nonpayable"
    },
    {
      "type": "event",
      "name": "EarningsWithdrawn",
      "inputs": [
        {
          "name": "to",
          "type": "address",
          "indexed": true,
          "internalType": "address"
        },
        {
          "name": "amount",
          "type": "uint256",
          "indexed": false,
          "internalType": "uint256"
        },
        {
          "name": "token",
          "type": "address",
          "indexed": true,
          "internalType": "address"
        }
      ],
      "anonymous": false
    },
    {
      "type": "event",
      "name": "PlanCreated",
      "inputs": [
        {
          "name": "planKey",
          "type": "uint8",
          "indexed": true,
          "internalType": "uint8"
        },
        {
          "name": "name",
          "type": "string",
          "indexed": false,
          "internalType": "string"
        },
        {
          "name": "priceWei",
          "type": "uint256",
          "indexed": false,
          "internalType": "uint256"
        }
      ],
      "anonymous": false
    },
    {
      "type": "event",
      "name": "PlanDeleted",
      "inputs": [
        {
          "name": "planKey",
          "type": "uint8",
          "indexed": true,
          "internalType": "uint8"
        }
      ],
      "anonymous": false
    },
    {
      "type": "event",
      "name": "PlanUpdated",
      "inputs": [
        {
          "name": "planKey",
          "type": "uint8",
          "indexed": true,
          "internalType": "uint8"
        },
        {
          "name": "name",
          "type": "string",
          "indexed": false,
          "internalType": "string"
        },
        {
          "name": "priceWei",
          "type": "uint256",
          "indexed": false,
          "internalType": "uint256"
        }
      ],
      "anonymous": false
    },
    {
      "type": "event",
      "name": "RoleAdminChanged",
      "inputs": [
        {
          "name": "role",
          "type": "bytes32",
          "indexed": true,
          "internalType": "bytes32"
        },
        {
          "name": "previousAdminRole",
          "type": "bytes32",
          "indexed": true,
          "internalType": "bytes32"
        },
        {
          "name": "newAdminRole",
          "type": "bytes32",
          "indexed": true,
          "internalType": "bytes32"
        }
      ],
      "anonymous": false
    },
    {
      "type": "event",
      "name": "RoleGranted",
      "inputs": [
        {
          "name": "role",
          "type": "bytes32",
          "indexed": true,
          "internalType": "bytes32"
        },
        {
          "name": "account",
          "type": "address",
          "indexed": true,
          "internalType": "address"
        },
        {
          "name": "sender",
          "type": "address",
          "indexed": true,
          "internalType": "address"
        }
      ],
      "anonymous": false
    },
    {
      "type": "event",
      "name": "RoleRevoked",
      "inputs": [
        {
          "name": "role",
          "type": "bytes32",
          "indexed": true,
          "internalType": "bytes32"
        },
        {
          "name": "account",
          "type": "address",
          "indexed": true,
          "internalType": "address"
        },
        {
          "name": "sender",
          "type": "address",
          "indexed": true,
          "internalType": "address"
        }
      ],
      "anonymous": false
    },
    {
      "type": "event",
      "name": "SubscriptionPaid",
      "inputs": [
        {
          "name": "team",
          "type": "address",
          "indexed": true,
          "internalType": "address"
        },
        {
          "name": "planKey",
          "type": "uint8",
          "indexed": true,
          "internalType": "uint8"
        },
        {
          "name": "paidUntil",
          "type": "uint256",
          "indexed": false,
          "internalType": "uint256"
        }
      ],
      "anonymous": false
    },
    {
      "type": "event",
      "name": "TokenSupportUpdated",
      "inputs": [
        {
          "name": "token",
          "type": "address",
          "indexed": true,
          "internalType": "address"
        },
        {
          "name": "supported",
          "type": "bool",
          "indexed": false,
          "internalType": "bool"
        }
      ],
      "anonymous": false
    },
    {
      "type": "error",
      "name": "AccessControlBadConfirmation",
      "inputs": []
    },
    {
      "type": "error",
      "name": "AccessControlUnauthorizedAccount",
      "inputs": [
        {
          "name": "account",
          "type": "address",
          "internalType": "address"
        },
        {
          "name": "neededRole",
          "type": "bytes32",
          "internalType": "bytes32"
        }
      ]
    },
    {
      "type": "error",
      "name": "ReentrancyGuardReentrantCall",
      "inputs": []
    }
  ],
  "bytecode": {
    "object": "0x6080346128c457601f61654e38819003918201601f19168301916001600160401b038311848410176116e7578084926060946040528339810103126128c4578051906001600160a01b03821682036128c45761007260406020830151920151926001805561006c81612927565b506129a5565b5060046020527fabd6e7cb50984ff9c2f3e18a2660c3353dadf4e3291deeb275dae2cd1e44fe0581905560026000527f91da3fd0782e51c6b3986e9e672fd566868e71f3dbc2d6c2cd6fbb3e361af2a78290556100cd6128e9565b6002815260005b604081106128b357506100e5612908565b601781527f426173696320657363726f772070726f74656374696f6e000000000000000000602082015261011882612a87565b5261012281612a87565b5061012b612908565b601181527010dbdb5b5d5b9a5d1e481cdd5c1c1bdc9d607a1b602082015261015282612a94565b5261015c81612a94565b506101656128c9565b9060008252610172612908565b60048152636672656560e01b60208201526020830152610190612908565b60048152634672656560e01b602082015260408301526101ae612908565b601b81527f5065726665637420666f722067657474696e67207374617274656400000000006020820152606083015260006080830152600360a083015260c0820152600160e08201526001610100820152600061012082015260fa61014082015260008052600560205260406000209060ff81511660ff19835416178255602081015180519060018060401b0382116116e75761024e6001850154612ad4565b601f811161287e575b50602090601f831160011461280c5761028992916000918361176b575b50508160011b916000199060031b1c19161790565b60018301555b60408101518051906001600160401b0382116116e7576102b26002850154612ad4565b601f81116127d7575b50602090601f8311600114612765576102ec92916000918361176b5750508160011b916000199060031b1c19161790565b60028301555b60608101518051906001600160401b0382116116e7576103156003850154612ad4565b601f8111612730575b50602090601f83116001146126be5761034f92916000918361176b5750508160011b916000199060031b1c19161790565b60038301555b6080810151600483015560a0810151600583015560c08101518051906801000000000000000082116116e7576006840154826006860155808310612646575b5060200190600684016000526020600020916000905b8282106125365750505050610140816103da60e0600a9401511515600786019060ff801983541691151516179055565b61010081015160088501556104056101208201511515600986019060ff801983541691151516179055565b0151910155600654680100000000000000008110156116e75760018101806006558110156116d157600581901c60008051602061652e83398151915201805460ff60039390931b60f8169290921b1990911690556000805260076020527f6d5257204ebe7d88fd91ae87941cb2dd9d8062b64ae5a2bd2d28ec40b9fbf6df805460ff191660011790556040516001600160401b0360808201908111908211176116e757608081016040526003815260005b6060811061252557506104c7612908565b601b81527f5072696f726974792064697370757465207265736f6c7574696f6e000000000060208201526104fa82612a87565b5261050481612a87565b5061050d612908565b601881527f416476616e63656420657363726f772066656174757265730000000000000000602082015261054082612a94565b5261054a81612a94565b50610553612908565b601081526f141c9a5bdc9a5d1e481cdd5c1c1bdc9d60821b602082015261057982612aa4565b5261058381612aa4565b5061058c6128c9565b9060018252610599612908565b600381526270726f60e81b602082015260208301526105b6612908565b600381526250726f60e81b602082015260408301526105d3612908565b6011815270466f722067726f77696e67207465616d7360781b60208201526060830152826080830152601960a083015260c0820152600160e08201526002610100820152600061012082015260c86101408201526001600052600560205260406000209060ff81511660ff19835416178255602081015180519060018060401b0382116116e7576106676001850154612ad4565b601f81116124f0575b50602090601f831160011461247e576106a192916000918361176b5750508160011b916000199060031b1c19161790565b60018301555b60408101518051906001600160401b0382116116e7576106ca6002850154612ad4565b601f8111612449575b50602090601f83116001146123d75761070492916000918361176b5750508160011b916000199060031b1c19161790565b60028301555b60608101518051906001600160401b0382116116e75761072d6003850154612ad4565b601f81116123a2575b50602090601f83116001146123305761076792916000918361176b5750508160011b916000199060031b1c19161790565b60038301555b6080810151600483015560a0810151600583015560c08101518051906801000000000000000082116116e75760068401548260068601558083106122b8575b5060200190600684016000526020600020916000905b8282106121a85750505050610140816107f260e0600a9401511515600786019060ff801983541691151516179055565b610100810151600885015561081d6101208201511515600986019060ff801983541691151516179055565b0151910155600654680100000000000000008110156116e75760018101806006558110156116d157600581901c60008051602061652e83398151915201805460ff60039390931b60f81692831b191660019283901b179055600081905260076020527fb39221ace053465ec3453ce2b36430bd138b997ecea25c1043da0c366812b828805460ff191690911790556108b3612a45565b6108bb612908565b601b81527f4150492061636365737320666f7220696e746567726174696f6e73000000000060208201526108ee82612a87565b526108f881612a87565b50610901612908565b601481527f32342f37207072656d69756d20737570706f7274000000000000000000000000602082015261093482612a94565b5261093e81612a94565b50610947612908565b601b81527f5072696f726974792064697370757465207265736f6c7574696f6e0000000000602082015261097a82612aa4565b5261098481612aa4565b5061098d612908565b601e81527f437573746f6d20736d61727420636f6e7472616374206665617475726573000060208201526109c082612ab4565b526109ca81612ab4565b506109d36128c9565b90600282526109e0612908565b600a815269656e746572707269736560b01b60208201526020830152610a04612908565b600a815269456e746572707269736560b01b60208201526040830152610a28612908565b601781527f466f72206c61726765206f7267616e697a6174696f6e730000000000000000006020820152606083015283608083015260001960a083015260c0820152600160e08201526003610100820152600061012082015260966101408201526002600052600560205260406000209060ff81511660ff19835416178255602081015180519060018060401b0382116116e757610ac96001850154612ad4565b601f8111612173575b50602090601f831160011461210157610b0392916000918361176b5750508160011b916000199060031b1c19161790565b60018301555b60408101518051906001600160401b0382116116e757610b2c6002850154612ad4565b601f81116120cc575b50602090601f831160011461205a57610b6692916000918361176b5750508160011b916000199060031b1c19161790565b60028301555b60608101518051906001600160401b0382116116e757610b8f6003850154612ad4565b601f8111612025575b50602090601f8311600114611fb357610bc992916000918361176b5750508160011b916000199060031b1c19161790565b60038301555b6080810151600483015560a0810151600583015560c08101518051906801000000000000000082116116e7576006840154826006860155808310611f3b575b5060200190600684016000526020600020916000905b828210611e2b575050505061014081610c5460e0600a9401511515600786019060ff801983541691151516179055565b6101008101516008850155610c7f6101208201511515600986019060ff801983541691151516179055565b0151910155600654680100000000000000008110156116e75760018101806006558110156116d157600581901c60008051602061652e83398151915201805460ff60039390931b60f81692831b191660029283901b17905560005260076020527fb7c774451310d1be4108bc180d1b52823cb0ee0274a6c0081bcaf94f115fb96d805460ff19166001179055610d13612a45565b610d1b612908565b601881527f53686172656420657363726f77206d616e6167656d656e7400000000000000006020820152610d4e82612a87565b52610d5881612a87565b50610d61612908565b601781527f5465616d2064697370757465207265736f6c7574696f6e0000000000000000006020820152610d9482612a94565b52610d9e81612a94565b50610da7612908565b601481527f436f6e736f6c6964617465642062696c6c696e670000000000000000000000006020820152610dda82612aa4565b52610de481612aa4565b50610ded612908565b601681527f5465616d20616374697669747920747261636b696e67000000000000000000006020820152610e2082612ab4565b52610e2a81612ab4565b5081600381020460031482151715611a8757610e446128c9565b9060038252610e51612908565b60088152677465616d5f70726f60c01b60208201526020830152610e73612908565b60088152675465616d2050726f60c01b60208201526040830152610e956128e9565b602181527f50726f20666561747572657320666f7220796f757220656e74697265207465616020820152606d60f81b60408201526060830152600383026080830152601960a083015260c0820152600160e08201526004610100820152600161012082015260c86101408201526003600052600560205260406000209060ff81511660ff19835416178255602081015180519060018060401b0382116116e757610f426001850154612ad4565b601f8111611df6575b50602090601f8311600114611d8457610f7c92916000918361176b5750508160011b916000199060031b1c19161790565b60018301555b60408101518051906001600160401b0382116116e757610fa56002850154612ad4565b601f8111611d4f575b50602090601f8311600114611cdd57610fdf92916000918361176b5750508160011b916000199060031b1c19161790565b60028301555b60608101518051906001600160401b0382116116e7576110086003850154612ad4565b601f8111611ca8575b50602090601f8311600114611c365761104292916000918361176b5750508160011b916000199060031b1c19161790565b60038301555b6080810151600483015560a0810151600583015560c08101518051906801000000000000000082116116e7576006840154826006860155808310611bbe575b5060200190600684016000526020600020916000905b828210611aae5750505050610140816110cd60e0600a9401511515600786019060ff801983541691151516179055565b61010081015160088501556110f86101208201511515600986019060ff801983541691151516179055565b015191015560065490680100000000000000008210156116e75760018201806006558210156116d157600582901c60008051602061652e83398151915201805460ff600394851b60f81690811b199091169084901b17905560008290527f3be6fd20d5acfde5b873b48692cd31f4d3c7e8ee8a813af4696af8859e5ca6c6805460ff191660011790556004602052027f2e174c10e159ea99b867ce3205125c24a42d128804e4070ed6fcc8cc98166aa0556040516001600160401b0360c08201908111908211176116e75760c081016040526005815260005b60a08110611a9d57506111e2612908565b601681527f556e6c696d69746564207465616d206d656d6265727300000000000000000000602082015261121582612a87565b5261121f81612a87565b50611228612908565b600f81526e5465616d204150492061636365737360881b602082015261124d82612a94565b5261125781612a94565b50611260612908565b601381527f57686974652d6c6162656c206f7074696f6e7300000000000000000000000000602082015261129382612aa4565b5261129d81612aa4565b506112a6612908565b601681527f446564696361746564207465616d20737570706f72740000000000000000000060208201526112d982612ab4565b526112e381612ab4565b506112ec612908565b601a81527f437573746f6d20636f6e7472616374206465706c6f796d656e74000000000000602082015261131f82612ac4565b5261132981612ac4565b5081600381020460031482151715611a87576113436128c9565b9060048252611350612908565b600f81526e7465616d5f656e746572707269736560881b60208201526020830152611379612908565b600f81526e5465616d20456e746572707269736560881b602082015260408301526113a26128e9565b602381527f456e746572707269736520666561747572657320666f72206c61726765207465602082015262616d7360e81b6040820152606083015260038302608083015260001960a083015260c0820152600160e08201526005610100820152600161012082015260966101408201526004600052600560205260406000209060ff81511660ff19835416178255602081015192835160018060401b0381116116e7576114526001850154612ad4565b601f8111611a52575b506020601f82116001146119e357819061148e9394959660009261176b5750508160011b916000199060031b1c19161790565b60018401555b604082015180519093906001600160401b0381116116e7576114b96002830154612ad4565b601f81116119ae575b506020601f821160011461193f5781906114f59394959660009261176b5750508160011b916000199060031b1c19161790565b60028201555b606083015180519093906001600160401b0381116116e7576115206003840154612ad4565b601f811161190a575b506020601f821160011461189b57819061155c9394959660009261176b5750508160011b916000199060031b1c19161790565b60038301555b6080810151600483015560a0810151600583015560c08101518051906801000000000000000082116116e7576006840154826006860155808310611823575b5060200190600684016000526020600020916000905b8282106116fd578686600a610140886115e560e08201511515600786019060ff801983541691151516179055565b61010081015160088501556116106101208201511515600986019060ff801983541691151516179055565b015191015560065490680100000000000000008210156116e75760018201806006558210156116d157600582901c60008051602061652e83398151915201805460ff600394851b60f81690811b1990911660049182901b1790915560008190527fb805995a7ec585a251200611a61d179cfd7fb105e1ab17dc415a7336783786f7805460ff19166001179055602052027f1a1e6821cde7d0159c0d293177871e09677b4e42307c7db3ba94f8648a5a050f556040516139e89081612b268239f35b634e487b7160e01b600052603260045260246000fd5b634e487b7160e01b600052604160045260246000fd5b80518051906001600160401b0382116116e75761171a8654612ad4565b601f81116117e6575b50602090601f8311600114611776579261175c8360019594602094879660009261176b5750508160011b916000199060031b1c19161790565b87555b019401910190926115b7565b015190503880610274565b908660005260206000209160005b601f19851681106117ce575083602093600196938796938794601f198116106117b5575b505050811b01875561175f565b015160001960f88460031b161c191690553880806117a8565b91926020600181928685015181550194019201611784565b61181390876000526020600020601f850160051c81019160208610611819575b601f0160051c0190612b0e565b38611723565b9091508190611806565b600685016000526020600020908382015b81830181106118445750506115a1565b8061185160019254612ad4565b8061185e575b5001611834565b601f811183146118745750600081555b38611857565b600090828252611892601f60208420920160051c8201858301612b0e565b8183555561186e565b6003840160005260206000209060005b601f19841681106118f2575060019394959683601f198116106118d9575b505050811b016003830155611562565b015160001960f88460031b161c191690553880806118c9565b9091602060018192858b0151815501930191016118ab565b61193990600385016000526020600020601f840160051c8101916020851061181957601f0160051c0190612b0e565b38611529565b6002830160005260206000209060005b601f1984168110611996575060019394959683601f1981161061197d575b505050811b0160028201556114fb565b015160001960f88460031b161c1916905538808061196d565b9091602060018192858b01518155019301910161194f565b6119dd90600284016000526020600020601f840160051c8101916020851061181957601f0160051c0190612b0e565b386114c2565b6001850160005260206000209060005b601f1984168110611a3a575060019394959683601f19811610611a21575b505050811b016001840155611494565b015160001960f88460031b161c19169055388080611a11565b9091602060018192858b0151815501930191016119f3565b611a8190600186016000526020600020601f840160051c8101916020851061181957601f0160051c0190612b0e565b3861145b565b634e487b7160e01b600052601160045260246000fd5b8060606020809385010152016111d1565b80518051906001600160401b0382116116e757611acb8654612ad4565b601f8111611b8c575b50602090601f8311600114611b1c5792611b0d8360019594602094879660009261176b5750508160011b916000199060031b1c19161790565b87555b0194019101909261109d565b908660005260206000209160005b601f1985168110611b74575083602093600196938796938794601f19811610611b5b575b505050811b018755611b10565b015160001960f88460031b161c19169055388080611b4e565b91926020600181928685015181550194019201611b2a565b611bb890876000526020600020601f850160051c8101916020861061181957601f0160051c0190612b0e565b38611ad4565b600685016000526020600020908382015b8183018110611bdf575050611087565b80611bec60019254612ad4565b80611bf9575b5001611bcf565b601f81118314611c0f5750600081555b38611bf2565b600090828252611c2d601f60208420920160051c8201858301612b0e565b81835555611c09565b9190600385016000526020600020906000935b601f1984168510611c8d576001945083601f19811610611c74575b505050811b016003830155611048565b015160001960f88460031b161c19169055388080611c64565b81810151835560209485019460019093019290910190611c49565b611cd790600386016000526020600020601f850160051c8101916020861061181957601f0160051c0190612b0e565b38611011565b9190600285016000526020600020906000935b601f1984168510611d34576001945083601f19811610611d1b575b505050811b016002830155610fe5565b015160001960f88460031b161c19169055388080611d0b565b81810151835560209485019460019093019290910190611cf0565b611d7e90600286016000526020600020601f850160051c8101916020861061181957601f0160051c0190612b0e565b38610fae565b9190600185016000526020600020906000935b601f1984168510611ddb576001945083601f19811610611dc2575b505050811b016001830155610f82565b015160001960f88460031b161c19169055388080611db2565b81810151835560209485019460019093019290910190611d97565b611e2590600186016000526020600020601f850160051c8101916020861061181957601f0160051c0190612b0e565b38610f4b565b80518051906001600160401b0382116116e757611e488654612ad4565b601f8111611f09575b50602090601f8311600114611e995792611e8a8360019594602094879660009261176b5750508160011b916000199060031b1c19161790565b87555b01940191019092610c24565b908660005260206000209160005b601f1985168110611ef1575083602093600196938796938794601f19811610611ed8575b505050811b018755611e8d565b015160001960f88460031b161c19169055388080611ecb565b91926020600181928685015181550194019201611ea7565b611f3590876000526020600020601f850160051c8101916020861061181957601f0160051c0190612b0e565b38611e51565b600685016000526020600020908382015b8183018110611f5c575050610c0e565b80611f6960019254612ad4565b80611f76575b5001611f4c565b601f81118314611f8c5750600081555b38611f6f565b600090828252611faa601f60208420920160051c8201858301612b0e565b81835555611f86565b9190600385016000526020600020906000935b601f198416851061200a576001945083601f19811610611ff1575b505050811b016003830155610bcf565b015160001960f88460031b161c19169055388080611fe1565b81810151835560209485019460019093019290910190611fc6565b61205490600386016000526020600020601f850160051c8101916020861061181957601f0160051c0190612b0e565b38610b98565b9190600285016000526020600020906000935b601f19841685106120b1576001945083601f19811610612098575b505050811b016002830155610b6c565b015160001960f88460031b161c19169055388080612088565b8181015183556020948501946001909301929091019061206d565b6120fb90600286016000526020600020601f850160051c8101916020861061181957601f0160051c0190612b0e565b38610b35565b9190600185016000526020600020906000935b601f1984168510612158576001945083601f1981161061213f575b505050811b016001830155610b09565b015160001960f88460031b161c1916905538808061212f565b81810151835560209485019460019093019290910190612114565b6121a290600186016000526020600020601f850160051c8101916020861061181957601f0160051c0190612b0e565b38610ad2565b80518051906001600160401b0382116116e7576121c58654612ad4565b601f8111612286575b50602090601f831160011461221657926122078360019594602094879660009261176b5750508160011b916000199060031b1c19161790565b87555b019401910190926107c2565b908660005260206000209160005b601f198516811061226e575083602093600196938796938794601f19811610612255575b505050811b01875561220a565b015160001960f88460031b161c19169055388080612248565b91926020600181928685015181550194019201612224565b6122b290876000526020600020601f850160051c8101916020861061181957601f0160051c0190612b0e565b386121ce565b600685016000526020600020908382015b81830181106122d95750506107ac565b806122e660019254612ad4565b806122f3575b50016122c9565b601f811183146123095750600081555b386122ec565b600090828252612327601f60208420920160051c8201858301612b0e565b81835555612303565b9190600385016000526020600020906000935b601f1984168510612387576001945083601f1981161061236e575b505050811b01600383015561076d565b015160001960f88460031b161c1916905538808061235e565b81810151835560209485019460019093019290910190612343565b6123d190600386016000526020600020601f850160051c8101916020861061181957601f0160051c0190612b0e565b38610736565b9190600285016000526020600020906000935b601f198416851061242e576001945083601f19811610612415575b505050811b01600283015561070a565b015160001960f88460031b161c19169055388080612405565b818101518355602094850194600190930192909101906123ea565b61247890600286016000526020600020601f850160051c8101916020861061181957601f0160051c0190612b0e565b386106d3565b9190600185016000526020600020906000935b601f19841685106124d5576001945083601f198116106124bc575b505050811b0160018301556106a7565b015160001960f88460031b161c191690553880806124ac565b81810151835560209485019460019093019290910190612491565b61251f90600186016000526020600020601f850160051c8101916020861061181957601f0160051c0190612b0e565b38610670565b8060606020809385010152016104b6565b80518051906001600160401b0382116116e7576125538654612ad4565b601f8111612614575b50602090601f83116001146125a457926125958360019594602094879660009261176b5750508160011b916000199060031b1c19161790565b87555b019401910190926103aa565b908660005260206000209160005b601f19851681106125fc575083602093600196938796938794601f198116106125e3575b505050811b018755612598565b015160001960f88460031b161c191690553880806125d6565b919260206001819286850151815501940192016125b2565b61264090876000526020600020601f850160051c8101916020861061181957601f0160051c0190612b0e565b3861255c565b600685016000526020600020908382015b8183018110612667575050610394565b8061267460019254612ad4565b80612681575b5001612657565b601f811183146126975750600081555b3861267a565b6000908282526126b5601f60208420920160051c8201858301612b0e565b81835555612691565b9190600385016000526020600020906000935b601f1984168510612715576001945083601f198116106126fc575b505050811b016003830155610355565b015160001960f88460031b161c191690553880806126ec565b818101518355602094850194600190930192909101906126d1565b61275f90600386016000526020600020601f850160051c8101916020861061181957601f0160051c0190612b0e565b3861031e565b9190600285016000526020600020906000935b601f19841685106127bc576001945083601f198116106127a3575b505050811b0160028301556102f2565b015160001960f88460031b161c19169055388080612793565b81810151835560209485019460019093019290910190612778565b61280690600286016000526020600020601f850160051c8101916020861061181957601f0160051c0190612b0e565b386102bb565b9190600185016000526020600020906000935b601f1984168510612863576001945083601f1981161061284a575b505050811b01600183015561028f565b015160001960f88460031b161c1916905538808061283a565b8181015183556020948501946001909301929091019061281f565b6128ad90600186016000526020600020601f850160051c8101916020861061181957601f0160051c0190612b0e565b38610257565b8060606020809385010152016100d4565b600080fd5b6040519061016082016001600160401b038111838210176116e757604052565b60405190606082016001600160401b038111838210176116e757604052565b60408051919082016001600160401b038111838210176116e757604052565b6001600160a01b031660008181527fad3228b676f7d3cd4284a5443f17f1962b36e491b30a40b2405849e597ba5fb5602052604081205490919060ff166129a157818052816020526040822081835260205260408220600160ff19825416179055339160008051602061650e8339815191528180a4600190565b5090565b6001600160a01b031660008181527f7d7ffb7a348e1c6a02869081a26547b49160dd3df72d1d75a570eb9b698292ec60205260408120549091907fa49807205ce4d355092ef5a8a18f56e8913cf4a201fbe287825b095693c217759060ff16612a4057808352826020526040832082845260205260408320600160ff1982541617905560008051602061650e833981519152339380a4600190565b505090565b6040519060a082016001600160401b038111838210176116e757604052600482528160005b60808110612a76575050565b806060602080938501015201612a6a565b8051156116d15760200190565b8051600110156116d15760400190565b8051600210156116d15760600190565b8051600310156116d15760800190565b8051600410156116d15760a00190565b90600182811c92168015612b04575b6020831014612aee57565b634e487b7160e01b600052602260045260246000fd5b91607f1691612ae3565b818110612b19575050565b60008155600101612b0e56fe608080604052600436101561001357600080fd5b60003560e01c90816301ffc9a714612ae2575080630216ef4114612ac45780630763e0ab14612a315780631f86011f146129ba578063248a9ca31461298b57806325a7f819146128505780632df3eba4146128325780632ebfc24a146128105780632f2ff15d146127d157806336568abe1461278a5780633ccf52ae1461275c5780634b3197131461273e57806350fe26191461154b57806351359c971461270057806357031bbd1461219d57806360a31a88146120b857806368c4ac26146120795780637037d5731461203e57806375b238fc146120035780637e9f49e314611de75780638535dd1514611d96578063857715fe14611bad57806388b66e2914611b795780638a793c0d146119b957806391d148541461196c57806392cff5fe146119325780639564cd241461180c57806398de396a146116f7578063a12b2121146115f8578063a217fddf146115dc578063b4d1d795146115be578063b56f4ded14611584578063b997fe941461154b578063bdc3645a14611511578063bee1324b14610f23578063c5dfd6e314610ede578063c8514d5814610e79578063c9211c8214610d01578063d547741f14610cc0578063d9e6e28714610c95578063e798646614610c01578063e8b032b614610a6a578063ebaef385146108b75763f51ff61d1461020357600080fd5b346108b25761021136612d00565b959997966102239591959492946137dc565b60ff8916600052600760205260ff60406000205416610863576102488a511515613204565b6102548851151561325b565b6040519761026189612c4a565b60ff8a1689528a60208a01526040890152606088015289608088015260a087015260c0860152151560e0850152610100840152151561012083015261014082015260ff8216600052600560205260406000209060ff81511660ff1983541617825560208101518051906001600160401b038211610532576102e56001850154612e25565b601f811161082e575b50602090601f83116001146107bc576103209291600091836105b6575b50508160011b916000199060031b1c19161790565b60018301555b60408101518051906001600160401b038211610532576103496002850154612e25565b601f8111610787575b50602090601f8311600114610715576103839291600091836105b65750508160011b916000199060031b1c19161790565b60028301555b60608101518051906001600160401b038211610532576103ac6003850154612e25565b601f81116106e0575b50602090601f831160011461066e576103e69291600091836105b65750508160011b916000199060031b1c19161790565b60038301555b6080810151600483015560a081015160058301556006820160c08201516020815191610418838561331a565b01916000526020600020916000905b82821061054857505050506101408161045760e0600a9401511515600786019060ff801983541691151516179055565b61010081015160088501556104826101208201511515600986019060ff801983541691151516179055565b015191015560065491600160401b8310156105325760ff826104eb610525946104d28760017fae558decf2e9c74b6790144120387f8f42428d14d8bd9b23c4f0dd0014ae22749901600655612f44565b90919060ff8084549260031b9316831b921b1916179055565b8181166000526007602052604060002060018319825416179055600460205285604060002055604051938493604085526040850190612f04565b95602084015216930390a2005b634e487b7160e01b600052604160045260246000fd5b80518051906001600160401b038211610532576105658654612e25565b601f8111610631575b50602090601f83116001146105c157926105a7836001959460209487966000926105b65750508160011b916000199060031b1c19161790565b87555b01940191019092610427565b01519050388061030b565b908660005260206000209160005b601f1985168110610619575083602093600196938796938794601f19811610610600575b505050811b0187556105aa565b015160001960f88460031b161c191690553880806105f3565b919260206001819286850151815501940192016105cf565b61065e90876000526020600020601f850160051c81019160208610610664575b601f0160051c01906132ba565b3861056e565b9091508190610651565b9190600385016000526020600020906000935b601f19841685106106c5576001945083601f198116106106ac575b505050811b0160038301556103ec565b015160001960f88460031b161c1916905538808061069c565b81810151835560209485019460019093019290910190610681565b61070f90600386016000526020600020601f850160051c8101916020861061066457601f0160051c01906132ba565b386103b5565b9190600285016000526020600020906000935b601f198416851061076c576001945083601f19811610610753575b505050811b016002830155610389565b015160001960f88460031b161c19169055388080610743565b81810151835560209485019460019093019290910190610728565b6107b690600286016000526020600020601f850160051c8101916020861061066457601f0160051c01906132ba565b38610352565b9190600185016000526020600020906000935b601f1984168510610813576001945083601f198116106107fa575b505050811b016001830155610326565b015160001960f88460031b161c191690553880806107ea565b818101518355602094850194600190930192909101906107cf565b61085d90600186016000526020600020601f850160051c8101916020861061066457601f0160051c01906132ba565b386102ee565b60405162461bcd60e51b815260206004820152602160248201527f537562736372697074696f6e3a20706c616e20616c72656164792065786973746044820152607360f81b6064820152608490fd5b600080fd5b346108b25760003660031901126108b257600680546000805b828110610a2157506108e19061353e565b916000805b8381106108ff57604051806108fb8782613085565b0390f35b61090881612f44565b60ff809254600392831b1c166000526005916020928084526007908282604060002001541661093f575b50505050506001016108e6565b928280600a93889996610a16989661095860019b612f44565b905490871b1c166000528087526109a86040600020956040519861097b8a612c4a565b858854168a5261098c8d8901612e5f565b908a015261099c60028801612e5f565b60408a01528601612e5f565b60608801526004850154608088015284015460a08701526109ca8b850161358e565b60c087015283015416151560e0850152600882015461010085015260098201541615156101208401520154610140820152610a0582896134d4565b52610a1081886134d4565b506137cd565b919086808080610932565b610a2a81612f44565b9060ff918291549060031b1c16600052600560205260076040600020015416610a56575b6001016108d0565b90610a626001916137cd565b919050610a4e565b346108b25760603660031901126108b257610a83612c19565b610a8b612c03565b9060443590610a986137dc565b610aa061396f565b6001600160a01b0390811692610ab7841515613775565b1690610ac48215156135e3565b610acf811515613640565b826000526020600b8152610af2604060002054600c8352604060002054906131c3565b8211610bab5783600052600c81526040600020610b108382546133fb565b90556040519163a9059cbb60e01b835283600484015280602484015281836044816000895af1928315610b9f577fc3853e6fee2a6777802bd492f98d51304bfc90876e592d928f8a361dd9a7444793610b72575b50604051908152a360018055005b610b9190833d8511610b98575b610b898183612c66565b8101906134bc565b5085610b64565b503d610b7f565b6040513d6000823e3d90fd5b6084906040519062461bcd60e51b82526004820152602960248201527f537562736372697074696f6e3a20696e73756666696369656e7420746f6b656e604482015268206561726e696e677360b81b6064820152fd5b346108b25760403660031901126108b257610c1a612c19565b60243590811515908183036108b2577fbbe72b7d9dcb594ee398a4a617885aba53d833e2aad601c813ce9df99fdeb49b91610c8c602092610c596137dc565b6001600160a01b031694610c6e861515613775565b85600052600a845260406000209060ff801983541691151516179055565b604051908152a2005b346108b25760203660031901126108b2576020610cb8610cb3612c19565b6136a5565b604051908152f35b346108b25760403660031901126108b257610cff600435610cdf612c03565b90806000526000602052610cfa600160406000200154613856565b6138fa565b005b346108b25760403660031901126108b2576004356001600160a01b038116908190036108b25760243590610d336137dc565b610d3b61396f565b610d468115156135e3565b610d51821515613640565b600854610d6160095480926131c3565b8311610e285782610d71916133fb565b600955600080808085855af13d15610e23573d610d8d81612c87565b90610d9b6040519283612c66565b8152600060203d92013e5b15610dde577fc3853e6fee2a6777802bd492f98d51304bfc90876e592d928f8a361dd9a744476020600093604051908152a360018055005b60405162461bcd60e51b815260206004820152601f60248201527f537562736372697074696f6e3a207769746864726177616c206661696c6564006044820152606490fd5b610da6565b60405162461bcd60e51b815260206004820152602360248201527f537562736372697074696f6e3a20696e73756666696369656e74206561726e696044820152626e677360e81b6064820152608490fd5b346108b25760203660031901126108b25760ff610e94612be3565b16806000526007602052610eaf60ff6040600020541661316d565b60005260056020526108fb610eca600660406000200161358e565b604051918291602083526020830190612f81565b346108b25760203660031901126108b2576001600160a01b03610eff612c19565b16600052600b6020526020610cb8604060002054600c8352604060002054906131c3565b346108b25760003660031901126108b257604051806006549081835260208093019181848460066000527ff652222313e28459528d920b65115c16c04f3efc82aaedc97be59f3f377c0d3f6000905b85601f830110611387579461109095549184828210611374575b82821061135e575b828210611348575b828210611332575b82821061131d575b828210611307575b8282106112f1575b8282106112db575b8282106112c5575b8282106112af575b828210611299575b828210611283575b82821061126d575b828210611257575b828210611241575b82821061122b575b828210611215575b8282106111ff575b8282106111e9575b8282106111d3575b8282106111bd575b8282106111a7575b828210611191575b82821061117b575b828210611165575b82821061114f575b828210611139575b828210611123575b82821061110d575b8282106110f7575b8282106110e1575b50106110d3575b5090509392930383612c66565b604051928392818401908285525180915260408401929160005b8281106110b957505050500390f35b835160ff16855286955093810193928101926001016110aa565b60f81c815201859087611083565b6001919460ff8560f01c1681520193018461107c565b6001919460ff8560e81c16815201930184611074565b6001919460ff8560e01c1681520193018461106c565b6001919460ff8560d81c16815201930184611064565b6001919460ff8560d01c1681520193018461105c565b6001919460ff8560c81c16815201930184611054565b6001919460ff8560c01c1681520193018461104c565b6001919460ff8560b81c16815201930184611044565b6001919460ff8560b01c1681520193018461103c565b6001919460ff8560a81c16815201930184611034565b6001919460ff8560a01c1681520193018461102c565b6001919460ff8560981c16815201930184611024565b6001919460ff8560901c1681520193018461101c565b6001919460ff8560881c16815201930184611014565b6001919460ff8560801c1681520193018461100c565b6001919460ff8560781c16815201930184611004565b6001919460ff8560701c16815201930184610ffc565b6001919460ff8560681c16815201930184610ff4565b6001919460ff8560601c16815201930184610fec565b6001919460ff8560581c16815201930184610fe4565b6001919460ff8560501c16815201930184610fdc565b6001919460ff8560481c16815201930184610fd4565b6001919460ff8560401c16815201930184610fcc565b6001919460ff8560381c16815201930184610fc4565b6001919460ff8560301c16815201930184610fbc565b6001919460ff8560281c16815201930184610fb4565b6001919460ff85831c16815201930184610fac565b6001919460ff8560181c16815201930184610fa4565b6001919460ff8560101c16815201930184610f9c565b6001919460ff8560081c16815201930184610f94565b6001919460ff8516815201930184610f8c565b9350916001610400829693865460ff8082168352808260081c1686840152808260101c16604084015280828482826060828260181c168185015282828d82826080921c1681880152828260a095828260281c16878b015260c099838360301c168b820152838360381c1660e0820152838360401c16610100820152838360481c16610120820152838360501c16610140820152610160848460581c169101521c166101808d0152828260681c166101a08d0152828260701c166101c08d0152828260781c166101e08d01521c166102008a0152828260881c166102208a0152828260901c166102408a0152828260981c166102608a01521c16610280870152828260a81c166102a0870152828260b01c166102c0870152828260b81c166102e08701521c16610300840152808260c81c16610320840152808260d01c16610340840152808260d81c16610360840152808260e01c16610380840152808260e81c166103a08401528160f01c166103c083015260f81c6103e082015201940192018593919492610f72565b346108b25760203660031901126108b2576001600160a01b03611532612c19565b16600052600b6020526020604060002054604051908152f35b346108b25760203660031901126108b25760ff611566612be3565b166000526007602052602060ff604060002054166040519015158152f35b346108b25760203660031901126108b2576001600160a01b036115a5612c19565b16600052600c6020526020604060002054604051908152f35b346108b25760003660031901126108b257602060405162278d008152f35b346108b25760003660031901126108b257602060405160008152f35b346108b2576020806003193601126108b25760ff611614612be3565b61161c6134e8565b5016806000526007825261163760ff6040600020541661316d565b60005260058152604060002090600a6040519261165384612c4a565b60ff815416845261166660018201612e5f565b8385015261167660028201612e5f565b604085015261168760038201612e5f565b606085015260048101546080850152600581015460a08501526116ac6006820161358e565b60c085015260ff600782015416151560e0850152600881015461010085015260ff600982015416151561012085015201546101408301526108fb604051928284938452830190612fde565b346108b25760003660031901126108b257600680546117158161353e565b9160005b82811061172e57604051806108fb8682613085565b80600a61173c600193612f44565b60ff929192809354600392831b1c1660005260059260209380855261179a6040600020936040519661176d88612c4a565b84865416885261177e8a8701612e5f565b9088015261178e60028601612e5f565b60408801528401612e5f565b60608601526004830154608086015282015460a08501526117bc87830161358e565b60c085015280600783015416151560e08501526008820154610100850152600982015416151561012084015201546101408201526117fa82876134d4565b5261180581866134d4565b5001611719565b60403660031901126108b257611820612c19565b60ff61182a612bf3565b1690816000526020906004825261185260406000205461184b811515613363565b34146133af565b6001600160a01b031660008181526002835260409020549091904281111561192a57905b62278d008201809211611914577f93f5683cd2a0b9749f9b7565b21809261c2a5db4d337b4bbea8dbdf4684756f9918360005260028252806040600020556003825260406000208560ff198254161790556118d3346008546133fb565b60085561190b6040516118e581612c2f565b3381528584820152866040820152346060820152600060808201524260a0820152613408565b604051908152a3005b634e487b7160e01b600052601160045260246000fd5b504290611876565b346108b25760203660031901126108b2576001600160a01b03611953612c19565b1660005260026020526020604060002054604051908152f35b346108b25760403660031901126108b257611985612c03565b600435600052600060205260406000209060018060a01b0316600052602052602060ff604060002054166040519015158152f35b346108b25760403660031901126108b257600435602435808211611b3457600d54811015611ae157816119eb916131c3565b90600191600181018091116119145791611a0483612ce9565b92611a126040519485612c66565b808452611a1e81612ce9565b60209390601f190160005b818110611ac557505060005b828110611a8757505050604051918083018184528451809152816040850195019160005b828110611a665785870386f35b909192938260c088611a7a849a8951612b4d565b0197950193929101611a59565b9283611aa6611aa0611a9b849997866133fb565b612b92565b5061311b565b611ab082876134d4565b52611abb81866134d4565b5001949294611a35565b8590611ad29795976130e9565b82828801015201959395611a29565b60405162461bcd60e51b815260206004820152602560248201527f537562736372697074696f6e3a20656e6420696e646578206f7574206f6620626044820152646f756e647360d81b6064820152608490fd5b60405162461bcd60e51b815260206004820152601b60248201527f537562736372697074696f6e3a20696e76616c69642072616e676500000000006044820152606490fd5b346108b25760203660031901126108b25760ff611b94612be3565b1660005260046020526020604060002054604051908152f35b346108b25760803660031901126108b257611bc6612c19565b611bce612bf3565b6001600160a01b039060443582811691908290036108b2576064359282600052602091600a835260ff6040600020541615611d475760ff16948560005260048352611c2a604060002054611c23811515613363565b86146133af565b16928360005260028252604060002054428111600014611d3f57905b62278d00820180921161191457600093606484928787526002845284604088205560038452604087208960ff19825416179055828752600b845260408720611c8f8282546133fb565b9055611cc5604051611ca081612c2f565b33815289868201528a60408201528260608201528460808201524260a0820152613408565b60405196879384926323b872dd60e01b845233600485015230602485015260448401525af1928315610b9f577f93f5683cd2a0b9749f9b7565b21809261c2a5db4d337b4bbea8dbdf4684756f993611d22575b50604051908152a3005b611d3890833d8511610b9857610b898183612c66565b5085611d18565b504290611c46565b60405162461bcd60e51b815260048101849052602160248201527f537562736372697074696f6e3a20746f6b656e206e6f7420737570706f7274656044820152601960fa1b6064820152608490fd5b346108b25760203660031901126108b25760ff611db1612be3565b16806000526007602052611dcc60ff6040600020541661316d565b60005260056020526020600a60406000200154604051908152f35b346108b2576020806003193601126108b257611e01612be3565b611e096137dc565b60ff809116918260005260078152611e2860ff6040600020541661316d565b8215611fb15760005b6006805480831015611fa75790849186611e4a85612f44565b949054600395861b1c1614611e6457505050600101611e31565b9394919390926000199180830191908211611914576104d284611e89611e9694612f44565b905490891b1c1691612f44565b82548015611f91570192611ea984612f44565b81939154921b1b19169055555b81600052600581526040600020600081556001611ed5600183016132d1565b611ee1600283016132d1565b611eed600383016132d1565b6000600483015560006005830155600682018054906000815581611f6c575b856007866000600a888285820155826008820155826009820155015582600052600481526000604081205552604060002060ff1981541690557f15f24668df6fb1c359e7625bd2ae2cc0b2d87604bb5c96adce721a4fc2ea1809600080a2005b60005283600020908101905b81811015611f0c5780611f8b84926132d1565b01611f78565b634e487b7160e01b600052603160045260246000fd5b5050509050611eb6565b6084906040519062461bcd60e51b82526004820152602560248201527f537562736372697074696f6e3a2063616e6e6f742064656c657465206672656560448201526410383630b760d91b6064820152fd5b346108b25760003660031901126108b25760206040517fa49807205ce4d355092ef5a8a18f56e8913cf4a201fbe287825b095693c217758152f35b346108b25760203660031901126108b2576004356006548110156108b25760ff612069602092612f44565b9190546040519260031b1c168152f35b346108b25760203660031901126108b2576001600160a01b0361209a612c19565b16600052600a602052602060ff604060002054166040519015158152f35b346108b25760203660031901126108b25760ff6120d3612be3565b166000526005602052604060002060ff8154166120f260018301612e5f565b916120ff60028201612e5f565b61210b60038301612e5f565b91600481015492600582015460ff60078401541690612174600885015493612166600a60ff600989015416970154976121586040519c8d809d6020610140928392815201528d0190612f04565b908b820360408d0152612f04565b9089820360608b0152612f04565b95608088015260a0870152151560c086015260e085015215156101008401526101208301520390f35b346108b2576121ab36612d00565b9690949193929599976121bc6137dc565b60ff891660005260076020526121d960ff6040600020541661316d565b6121e58a511515613204565b6121f18151151561325b565b60ff8916600052600560205260016040600020018a516001600160401b0381116105325761221f8254612e25565b601f81116126ce575b506020601f82116001146126675790806122589260009161265c575b508160011b916000199060031b1c19161790565b90555b60ff891660005260056020526002604060002001908051906001600160401b0382116105325761228b8354612e25565b601f811161262a575b50602090601f83116001146125be576122c59291600091836125135750508160011b916000199060031b1c19161790565b90555b60ff881660005260056020526003604060002001908051906001600160401b038211610532576122f88354612e25565b601f811161258c575b50602090601f831160011461251e5791806123379260069695946000926125135750508160011b916000199060031b1c19161790565b90555b60ff881660005260056020526040600020908a6004830155600582015501906020815191612368838561331a565b01916000526020600020916000905b828210612403578a6000805160206139938339815191526105258c60ff8d8d600a8e6123e18f8f87871660005260056020526123c7604060002094600786019060ff801983541691151516179055565b6008840155600983019060ff801983541691151516179055565b0155600460205285604060002055604051938493604085526040850190612f04565b80518051906001600160401b038211610532576124208654612e25565b601f81116124e1575b50602090601f83116001146124715792612462836001959460209487966000926105b65750508160011b916000199060031b1c19161790565b87555b01940191019092612377565b908660005260206000209160005b601f19851681106124c9575083602093600196938796938794601f198116106124b0575b505050811b018755612465565b015160001960f88460031b161c191690553880806124a3565b9192602060018192868501518155019401920161247f565b61250d90876000526020600020601f850160051c8101916020861061066457601f0160051c01906132ba565b8d612429565b015190508e8061030b565b908360005260206000209160005b601f198516811061257457509183916001936006979695601f1981161061255b575b505050811b01905561233a565b015160001960f88460031b161c191690558d808061254e565b9192602060018192868501518155019401920161252c565b6125b890846000526020600020601f850160051c8101916020861061066457601f0160051c01906132ba565b8c612301565b9190836000526020600020906000935b601f198416851061260f576001945083601f198116106125f6575b505050811b0190556122c8565b015160001960f88460031b161c191690558d80806125e9565b818101518355602094850194600190930192909101906125ce565b61265690846000526020600020601f850160051c8101916020861061066457601f0160051c01906132ba565b8d612294565b90508d01518f612244565b6000838152602081209092918e5b601f19841685106126b6576001945083601f1981161061269d575b505050811b01905561225b565b015160001960f88460031b161c191690558e808e612690565b8101518255602093840193600190920191018e612675565b6126fa90836000526020600020601f840160051c8101916020851061066457601f0160051c01906132ba565b8d612228565b346108b25760003660031901126108b257608060085460095461272381836131c3565b600d5491604051938452602084015260408301526060820152f35b346108b25760003660031901126108b2576020600954604051908152f35b346108b25760203660031901126108b257602061277f61277a612c19565b6131d0565b60ff60405191168152f35b346108b25760403660031901126108b2576127a3612c03565b336001600160a01b038216036127bf57610cff906004356138fa565b60405163334bd91960e11b8152600490fd5b346108b25760403660031901126108b257610cff6004356127f0612c03565b9080600052600060205261280b600160406000200154613856565b61387c565b346108b25760003660031901126108b2576020610cb8600854600954906131c3565b346108b25760003660031901126108b2576020600854604051908152f35b346108b25760403660031901126108b257612869612be3565b60ff602435916128776137dc565b168060005260206007815261289360ff6040600020541661316d565b81600052600481528260406000205560058152604060002092806004850155600180940191604051926040845260009581546128ce81612e25565b92836040880152606091600181169081600014612953575060011461290b575b8760008051602061399383398151915288808c8a8a8301520390a2005b6000908152848120949850935b83851061294057505050508201606001938160008051602061399383398151915284886128ee565b8054878601830152938801938201612918565b91505060008051602061399383398151915297985060609250869593915060ff191682860152151560051b84010195948193886128ee565b346108b25760203660031901126108b25760043560005260006020526020600160406000200154604051908152f35b346108b25760203660031901126108b257600435600d548110156108b2576129e360c091612b92565b5060018060a01b038082541691600181015460ff600283015491600485600386015416940154946040519687528116602087015260a01c1660408501526060840152608083015260a0820152f35b346108b25760203660031901126108b257600435612a4d6130e9565b50600d54811015612a7557612a66611aa060c092612b92565b612a736040518092612b4d565bf35b60405162461bcd60e51b815260206004820152602160248201527f537562736372697074696f6e3a20696e646578206f7574206f6620626f756e646044820152607360f81b6064820152608490fd5b346108b25760003660031901126108b2576020600d54604051908152f35b346108b25760203660031901126108b2576004359063ffffffff60e01b82168092036108b257602091637965db0b60e01b8114908115612b3c575b8115612b2b575b5015158152f35b6301ffc9a760e01b14905083612b24565b6301ffc9a760e01b81149150612b1d565b60a08091600180831b0380825116855280602083015116602086015260ff60408301511660408601526060820151606086015260808201511660808501520151910152565b600d54811015612bcd57600590600d600052027fd7b6990105719101dabeb77144f2a3385c8033acd3af97e9423a695e81ad1eb50190600090565b634e487b7160e01b600052603260045260246000fd5b6004359060ff821682036108b257565b6024359060ff821682036108b257565b602435906001600160a01b03821682036108b257565b600435906001600160a01b03821682036108b257565b60c081019081106001600160401b0382111761053257604052565b61016081019081106001600160401b0382111761053257604052565b90601f801991011681019081106001600160401b0382111761053257604052565b6001600160401b03811161053257601f01601f191660200190565b81601f820112156108b257803590612cb982612c87565b92612cc76040519485612c66565b828452602083830101116108b257816000926020809301838601378301015290565b6001600160401b0381116105325760051b60200190565b6101606003198201126108b25760043560ff811681036108b257916024916001600160401b039083358281116108b25781612d3d91600401612ca2565b936044358381116108b25782612d5591600401612ca2565b936064358481116108b25783612d6d91600401612ca2565b936084359360a4359360c435928084116108b257826023850112156108b2578360040135612d9a81612ce9565b94612da86040519687612c66565b8186526020946024602088019360051b830101948186116108b25760248301935b868510612e005750505050505050509060e43580151581036108b2579061010435906101243580151581036108b257906101443590565b84358681116108b2578891612e1a85858594890101612ca2565b815201940193612dc9565b90600182811c92168015612e55575b6020831014612e3f57565b634e487b7160e01b600052602260045260246000fd5b91607f1691612e34565b90604051918260008254612e7281612e25565b90818452602094600191600181169081600014612ee25750600114612ea3575b505050612ea192500383612c66565b565b600090815285812095935091905b818310612eca575050612ea19350820101388080612e92565b85548884018501529485019487945091830191612eb1565b92505050612ea194925060ff191682840152151560051b820101388080612e92565b919082519283825260005b848110612f30575050826000602080949584010152601f8019910116010190565b602081830181015184830182015201612f0f565b90600654821015612bcd576006600052601f8260051c7ff652222313e28459528d920b65115c16c04f3efc82aaedc97be59f3f377c0d3f01921690565b90808251908181526020809101926020808460051b8301019501936000915b848310612fb05750505050505090565b9091929394958480612fce600193601f198682030187528a51612f04565b9801930193019194939290612fa0565b9061305361302d61301b61300961016060ff8751168652602087015190806020880152860190612f04565b60408601518582036040870152612f04565b60608501518482036060860152612f04565b6080840151608084015260a084015160a084015260c084015183820360c0850152612f81565b9160e0810151151560e08301526101008082015190830152610120808201511515908301526101408091015191015290565b6020808201906020835283518092526040830192602060408460051b8301019501936000915b8483106130bb5750505050505090565b90919293949584806130d9600193603f198682030187528a51612fde565b98019301930191949392906130ab565b604051906130f682612c2f565b8160a06000918281528260208201528260408201528260608201528260808201520152565b9060405161312881612c2f565b60a060048294600180841b0380825416855260ff60018301548281166020880152851c1660408601526002820154606086015260038201541660808501520154910152565b1561317457565b60405162461bcd60e51b815260206004820152602160248201527f537562736372697074696f6e3a20706c616e20646f6573206e6f7420657869736044820152601d60fa1b6064820152608490fd5b9190820391821161191457565b6001600160a01b031660009081526002602052604090205442106131f357600090565b600360205260ff6040600020541690565b1561320b57565b60405162461bcd60e51b815260206004820152602260248201527f537562736372697074696f6e3a206e616d652063616e6e6f7420626520656d70604482015261747960f01b6064820152608490fd5b1561326257565b60405162461bcd60e51b815260206004820152602a60248201527f537562736372697074696f6e3a20646973706c6179206e616d652063616e6e6f6044820152697420626520656d70747960b01b6064820152608490fd5b8181106132c5575050565b600081556001016132ba565b6132db8154612e25565b90816132e5575050565b81601f600093116001146132f7575055565b908083918252613316601f60208420940160051c8401600185016132ba565b5555565b90600160401b81116105325781549181815582821061333857505050565b600052602060002091820191015b818110613351575050565b8061335d6001926132d1565b01613346565b1561336a57565b60405162461bcd60e51b815260206004820152601a60248201527f537562736372697074696f6e3a20756e6b6e6f776e20706c616e0000000000006044820152606490fd5b156133b657565b60405162461bcd60e51b815260206004820152601f60248201527f537562736372697074696f6e3a20696e636f7272656374207061796d656e74006044820152606490fd5b9190820180921161191457565b600d54600160401b811015610532578060016134279201600d55612b92565b9190916134a65760a0600491600180831b03808251166bffffffffffffffffffffffff841b9081875416178655600186018260208501511681549060ff871b6040870151881b16916affffffffffffffffffffff60a81b1617179055606083015160028701556003860191608084015116908254161790550151910155565b634e487b7160e01b600052600060045260246000fd5b908160209103126108b2575180151581036108b25790565b8051821015612bcd5760209160051b010190565b604051906134f582612c4a565b8161014060009182815260606020820152606060408201526060808201528260808201528260a0820152606060c08201528260e082015282610100820152826101208201520152565b9061354882612ce9565b6135556040519182612c66565b8281528092613566601f1991612ce9565b019060005b82811061357757505050565b6020906135826134e8565b8282850101520161356b565b90815461359a81612ce9565b926135a86040519485612c66565b818452600090815260208082208186015b8484106135c7575050505050565b60018381926135d585612e5f565b8152019201930192906135b9565b156135ea57565b60405162461bcd60e51b815260206004820152602860248201527f537562736372697074696f6e3a20696e76616c6964207769746864726177616c604482015267206164647265737360c01b6064820152608490fd5b1561364757565b60405162461bcd60e51b815260206004820152603060248201527f537562736372697074696f6e3a207769746864726177616c20616d6f756e742060448201526f6d75737420626520706f73697469766560801b6064820152608490fd5b6001600160a01b0316600081815260026020908152604080832054919493909291421080613757575b61373a57508080526007845260ff8282205416156136f6576005600a93948280525220015490565b815162461bcd60e51b815260048101859052601860248201527f4672656520706c616e206e6f7420636f6e6669677572656400000000000000006044820152606490fd5b600a939460059183526003815260ff848420541683525220015490565b506003855260ff838320541682526007855260ff83832054166136ce565b1561377c57565b60405162461bcd60e51b815260206004820152602360248201527f537562736372697074696f6e3a20696e76616c696420746f6b656e206164647260448201526265737360e81b6064820152608490fd5b60001981146119145760010190565b3360009081527f7d7ffb7a348e1c6a02869081a26547b49160dd3df72d1d75a570eb9b698292ec60205260409020547fa49807205ce4d355092ef5a8a18f56e8913cf4a201fbe287825b095693c217759060ff16156138385750565b6044906040519063e2517d3f60e01b82523360048301526024820152fd5b80600052600060205260406000203360005260205260ff60406000205416156138385750565b9060009180835282602052604083209160018060a01b03169182845260205260ff604084205416156000146138f557808352826020526040832082845260205260408320600160ff198254161790557f2f8788117e7eff1d82e926ec794901d17c78024a50270940304540a733656f0d339380a4600190565b505090565b9060009180835282602052604083209160018060a01b03169182845260205260ff6040842054166000146138f55780835282602052604083208284526020526040832060ff1981541690557ff6391f5c32d9c69d2a47ea670b442974b53935d1edc7fd64eb21e047a839171b339380a4600190565b600260015414613980576002600155565b604051633ee5aeb560e01b8152600490fdfe462483258991e6a7145fba99be1b83b3c23d949f15d84e155f9bc47d7a4353dea264697066735822122052ad0fc90f047b34c3db16bf2693b2dfe791281308b1ed60c54d0d45fb15b61964736f6c634300081900332f8788117e7eff1d82e926ec794901d17c78024a50270940304540a733656f0df652222313e28459528d920b65115c16c04f3efc82aaedc97be59f3f377c0d3f",
    "linkReferences": {}
  },
  "methodIdentifiers": {
    "ADMIN_ROLE()": "75b238fc",
    "DEFAULT_ADMIN_ROLE()": "a217fddf",
    "PERIOD()": "b4d1d795",
    "createPlan(uint8,string,string,string,uint256,uint256,string[],bool,uint256,bool,uint256)": "f51ff61d",
    "deletePlan(uint8)": "7e9f49e3",
    "earningRecords(uint256)": "1f86011f",
    "getActiveSubscriptionPlan(address)": "3ccf52ae",
    "getAllActivePlans()": "ebaef385",
    "getAllPlanKeys()": "bee1324b",
    "getAllPlans()": "98de396a",
    "getAvailableEarnings()": "2ebfc24a",
    "getAvailableTokenEarnings(address)": "c5dfd6e3",
    "getEarningRecord(uint256)": "0763e0ab",
    "getEarningRecords(uint256,uint256)": "8a793c0d",
    "getEarningRecordsCount()": "0216ef41",
    "getEarningsSummary()": "51359c97",
    "getPlan(uint8)": "a12b2121",
    "getPlanFeatures(uint8)": "c8514d58",
    "getPlanFeeTier(uint8)": "8535dd15",
    "getRoleAdmin(bytes32)": "248a9ca3",
    "getUserFeeTier(address)": "d9e6e287",
    "grantRole(bytes32,address)": "2f2ff15d",
    "hasRole(bytes32,address)": "91d14854",
    "paidUntil(address)": "92cff5fe",
    "paySubscription(address,uint8)": "9564cd24",
    "paySubscriptionWithToken(address,uint8,address,uint256)": "857715fe",
    "planExists(uint8)": "b997fe94",
    "planExistsCheck(uint8)": "50fe2619",
    "planKeys(uint256)": "7037d573",
    "planPriceWei(uint8)": "88b66e29",
    "plans(uint8)": "60a31a88",
    "renounceRole(bytes32,address)": "36568abe",
    "revokeRole(bytes32,address)": "d547741f",
    "setPlanPrice(uint8,uint256)": "25a7f819",
    "setSupportedToken(address,bool)": "e7986466",
    "supportedTokens(address)": "68c4ac26",
    "supportsInterface(bytes4)": "01ffc9a7",
    "tokenEarnings(address)": "bdc3645a",
    "tokenWithdrawn(address)": "b56f4ded",
    "totalEarnings()": "2df3eba4",
    "totalWithdrawn()": "4b319713",
    "updatePlan(uint8,string,string,string,uint256,uint256,string[],bool,uint256,bool,uint256)": "57031bbd",
    "withdrawEarnings(address,uint256)": "c9211c82",
    "withdrawTokenEarnings(address,address,uint256)": "e8b032b6"
  },
  "id": 49
}